./tcpdump -vv -XX -s 0 -i p2p-wlan0-0
tcpdump: listening on p2p-wlan0-0, link-type EN10MB (Ethernet), capture size 262144 bytes
03:13:41.817979 IP6 (hlim 1, next-header Options (0) payload length: 36) :: > ff02::16: HBH (rtalert: 0x0000) (padn) [icmp6 sum ok] ICMP6, multicast listener report v2, 1 group record(s) [gaddr ff02::1:ffdc:3230 to_ex { }]
        0x0000:  3333 0000 0016 b272 bfdc 3230 86dd 6000  33.....r..20..`.
        0x0010:  0000 0024 0001 0000 0000 0000 0000 0000  ...$............
        0x0020:  0000 0000 0000 ff02 0000 0000 0000 0000  ................
        0x0030:  0000 0000 0016 3a00 0502 0000 0100 8f00  ......:.........
        0x0040:  3c7e 0000 0001 0400 0000 ff02 0000 0000  <~..............
        0x0050:  0000 0000 0001 ffdc 3230                 ........20
^[[A03:13:42.080157 IP6 (hlim 1, next-header Options (0) payload length: 36) fe80::b072:bfff:fedc:3230 > ff02::16: HBH (rtalert: 0x0000) (padn) [icmp6 sum ok] ICMP6, multicast listener report v2, 1 group record(s) [gaddr ff02::1:ffdc:3230 to_ex { }]
        0x0000:  3333 0000 0016 b272 bfdc 3230 86dd 6000  33.....r..20..`.
        0x0010:  0000 0024 0001 fe80 0000 0000 0000 b072  ...$...........r
        0x0020:  bfff fedc 3230 ff02 0000 0000 0000 0000  ....20..........
        0x0030:  0000 0000 0016 3a00 0502 0000 0100 8f00  ......:.........
        0x0040:  9c7d 0000 0001 0400 0000 ff02 0000 0000  .}..............
        0x0050:  0000 0000 0001 ffdc 3230                 ........20
03:13:42.081122 IP6 (hlim 255, next-header ICMPv6 (58) payload length: 16) fe80::b072:bfff:fedc:3230 > ff02::2: [icmp6 sum ok] ICMP6, router solicitation, length 16
          source link-address option (1), length 8 (1): b2:72:bf:dc:32:30
            0x0000:  b272 bfdc 3230
        0x0000:  3333 0000 0002 b272 bfdc 3230 86dd 6000  33.....r..20..`.
        0x0010:  0000 0010 3aff fe80 0000 0000 0000 b072  ....:..........r
        0x0020:  bfff fedc 3230 ff02 0000 0000 0000 0000  ....20..........
        0x0030:  0000 0000 0002 8500 362f 0000 0000 0101  ........6/......
        0x0040:  b272 bfdc 3230                           .r..20
03:13:42.098225 IP6 (hlim 1, next-header Options (0) payload length: 36) fe80::b072:bfff:fedc:3230 > ff02::16: HBH (rtalert: 0x0000) (padn) [icmp6 sum ok] ICMP6, multicast listener report v2, 1 group record(s) [gaddr ff02::1:ffdc:3230 to_ex { }]
        0x0000:  3333 0000 0016 b272 bfdc 3230 86dd 6000  33.....r..20..`.
        0x0010:  0000 0024 0001 fe80 0000 0000 0000 b072  ...$...........r
        0x0020:  bfff fedc 3230 ff02 0000 0000 0000 0000  ....20..........
        0x0030:  0000 0000 0016 3a00 0502 0000 0100 8f00  ......:.........
        0x0040:  9c7d 0000 0001 0400 0000 ff02 0000 0000  .}..............
        0x0050:  0000 0000 0001 ffdc 3230                 ........20
03:13:43.053096 38:1d:d9:41:db:ff (oui Unknown) > Broadcast Null Unnumbered, xid, Flags [Response], length 6: 01 00
        0x0000:  ffff ffff ffff 381d d941 dbff 0006 0001  ......8..A......
        0x0010:  af81 0100                                ....
03:13:44.058028 EAPOL start (1) v1, len 0
        0x0000:  b272 bfdc 3230 381d d941 dbff 888e 0101  .r..208..A......
        0x0010:  0000                                     ..
03:13:44.061456 EAP packet (0) v2, len 5, Request (1), id 115, len 5
                 Type Identity (1)
        0x0000:  381d d941 dbff b272 bfdc 3230 888e 0200  8..A...r..20....
        0x0010:  0005 0173 0005 01                        ...s...
03:13:44.074155 EAP packet (0) v1, len 34, Response (2), id 115, len 34
                 Type Identity (1), Identity: WFA-SimpleConfig-Enrollee-1-0
        0x0000:  b272 bfdc 3230 381d d941 dbff 888e 0100  .r..208..A......
        0x0010:  0022 0273 0022 0157 4641 2d53 696d 706c  .".s.".WFA-Simpl
        0x0020:  6543 6f6e 6669 672d 456e 726f 6c6c 6565  eConfig-Enrollee
        0x0030:  2d31 2d30                                -1-0
03:13:44.077829 EAP packet (0) v2, len 14, Request (1), id 116, len 14
                 Type Expanded types (254)
        0x0000:  381d d941 dbff b272 bfdc 3230 888e 0200  8..A...r..20....
        0x0010:  000e 0174 000e fe00 372a 0000 0001 0100  ...t....7*......
03:13:44.707627 EAP packet (0) v1, len 376, Response (2), id 116, len 376
                 Type Expanded types (254)
        0x0000:  b272 bfdc 3230 381d d941 dbff 888e 0100  .r..208..A......
        0x0010:  0178 0274 0178 fe00 372a 0000 0001 0400  .x.t.x..7*......
        0x0020:  104a 0001 1010 2200 0104 1047 0010 381d  .J...."....G..8.
        0x0030:  d941 dbff 0000 0000 0000 0000 0000 1020  .A..............
        0x0040:  0006 381d d941 dbff 101a 0010 d049 458b  ..8..A.......IE.
        0x0050:  9c93 d0d2 361f b560 5d21 53e5 1032 00c0  ....6..`]!S..2..
        0x0060:  2f50 a5fd bc8b 3061 77ca 419e 6e40 4e9e  /P....0aw.A.n@N.
        0x0070:  c44d 60cf 155a d96f 6b6b 70de 7c58 ce38  .M`..Z.okkp.|X.8
        0x0080:  8ecd e1fd 009e b0e9 8e5c 1e80 f904 a70e  .........\......
        0x0090:  0d65 b016 c15b d9cd 1182 6c50 b1b1 2280  .e...[....lP..".
        0x00a0:  e4de 286f 22e8 955a 43be f107 1b75 14dc  ..(o"..ZC....u..
        0x00b0:  b52c 9bc1 1acf 140d 47a2 c1f1 02d3 1746  .,......G......F
        0x00c0:  64b0 1d8b 92bc cf78 a748 55a4 30cf 9969  d......x.HU.0..i
        0x00d0:  3bb0 4a9e ab60 252c 347b 7fa4 6613 be59  ;.J..`%,4{..f..Y
        0x00e0:  3c1e 27a3 03fc 8de2 93d1 c179 d793 5a4e  <.'........y..ZN
        0x00f0:  c299 07c5 e6a3 2e41 de6b ca1c 851b 64f1  .......A.k....d.
        0x0100:  7755 deb1 f6b0 0054 61cb 1c11 82b6 60c2  wU.....Ta.....`.
        0x0110:  6db1 a643 a441 10de 80cf c8a0 6f04 f537  m..C.A......o..7
        0x0120:  1004 0002 0023 1010 0002 000d 100d 0001  .....#..........
        0x0130:  0110 0800 0221 0810 4400 0101 1021 0001  .....!..D....!..
        0x0140:  2010 2300 0120 1024 0001 2010 4200 0120  ..#....$....B...
        0x0150:  1054 0008 0000 0000 0000 0000 1011 0001  .T..............
        0x0160:  2010 3c00 0103 1002 0002 0000 1012 0002  ..<.............
        0x0170:  0004 1009 0002 0000 102d 0004 8000 0000  .........-......
        0x0180:  1049 0006 0037 2a00 0120                 .I...7*...
03:13:44.752907 EAP packet (0) v2, len 446, Request (1), id 117, len 446
                 Type Expanded types (254)
        0x0000:  381d d941 dbff b272 bfdc 3230 888e 0200  8..A...r..20....
        0x0010:  01be 0175 01be fe00 372a 0000 0001 0400  ...u....7*......
        0x0020:  104a 0001 1010 2200 0105 101a 0010 d049  .J...."........I
        0x0030:  458b 9c93 d0d2 361f b560 5d21 53e5 1039  E.....6..`]!S..9
        0x0040:  0010 ca0c c3bf 4602 ac1f b08f f2ee 7486  ......F.......t.
        0x0050:  8c77 1048 0010 99ea c901 7345 5ae9 bed5  .w.H......sEZ...
        0x0060:  fd42 f5af 08e6 1032 00c0 f2eb 8aea 0dae  .B.....2........
        0x0070:  f4ce 9cef 89fd b4b9 673f 5592 ee4a 14e8  ........g?U..J..
        0x0080:  6905 f2ca ad08 397b 07f1 9b0f be59 e25f  i.....9{.....Y._
        0x0090:  5f6a 937d 1e5f 7495 d673 03c1 8fee ece7  _j.}._t..s......
        0x00a0:  499c 0939 6fd9 dc4f 61a6 4c67 2c95 634d  I..9o..Oa.Lg,.cM
        0x00b0:  8558 cab8 8477 71cf 3833 1ee9 88ac a41b  .X...wq.83......
        0x00c0:  b12a 6f8a 895d 7599 5376 73d4 edee 7fff  .*o..]u.Svs.....
        0x00d0:  61f2 6570 2bcb c7a2 22ac de1e 7a54 0d4c  a.ep+..."...zT.L
        0x00e0:  7fd4 6dc7 5266 0e60 48be 3686 8d03 c290  ..m.Rf.`H.6.....
        0x00f0:  5266 bfdd 2754 5616 30de b9e8 34e2 68a2  Rf..'TV.0...4.h.
        0x0100:  4490 c179 e0e0 d6ad 8ce1 9364 b1bc 7e6f  D..y.......d..~o
        0x0110:  3f3b e7bc d3eb 9544 06d3 588e d1f2 ad69  ?;.....D..X....i
        0x0120:  5cb2 c455 60ac f8f9 d312 1004 0002 0023  \..U`..........#
        0x0130:  1010 0002 000d 100d 0001 0110 0800 0243  ...............C
        0x0140:  8810 2100 0773 616d 7375 6e67 1023 0009  ..!..samsung.#..
        0x0150:  534d 2d47 3935 3055 3110 2400 0953 4d2d  SM-G950U1.$..SM-
        0x0160:  4739 3530 5531 1042 0012 3938 3838 3230  G950U1.B..988820
        0x0170:  3333 3337 3439 3431 3337 3334 1054 0008  333749413734.T..
        0x0180:  000a 0050 f204 0005 1011 000f 5b50 686f  ...P........[Pho
        0x0190:  6e65 5d20 7068 6f6e 652d 3610 3c00 0101  ne].phone-6.<...
        0x01a0:  1002 0002 0000 1009 0002 0000 1012 0002  ................
        0x01b0:  0004 102d 0004 8000 0000 1049 0006 0037  ...-.......I...7
        0x01c0:  2a00 0120 1005 0008 15f9 3fba 5559 f44d  *.........?.UY.M
03:13:45.375845 EAP packet (0) v1, len 138, Response (2), id 117, len 138
                 Type Expanded types (254)
        0x0000:  b272 bfdc 3230 381d d941 dbff 888e 0100  .r..208..A......
        0x0010:  008a 0275 008a fe00 372a 0000 0001 0400  ...u....7*......
        0x0020:  104a 0001 1010 2200 0107 1039 0010 ca0c  .J...."....9....
        0x0030:  c3bf 4602 ac1f b08f f2ee 7486 8c77 1014  ..F.......t..w..
        0x0040:  0020 de64 52d6 f33f ddf2 22e6 4406 a97b  ...dR..?..".D..{
        0x0050:  9747 163f fea3 581f 4caf da24 71bc e58d  .G.?..X.L..$q...
        0x0060:  940f 1015 0020 240b d1d5 0ff6 6b2d 048e  ......$.....k-..
        0x0070:  2ce8 6cc4 d5d6 7c86 6d83 7c30 8004 5973  ,.l...|.m.|0..Ys
        0x0080:  e5c7 2bc0 1291 1049 0006 0037 2a00 0120  ..+....I...7*...
        0x0090:  1005 0008 82f8 805f a5f1 8759            ......._...Y
03:13:45.379583 EAP packet (0) v2, len 206, Request (1), id 118, len 206
                 Type Expanded types (254)
        0x0000:  381d d941 dbff b272 bfdc 3230 888e 0200  8..A...r..20....
        0x0010:  00ce 0176 00ce fe00 372a 0000 0001 0400  ...v....7*......
        0x0020:  104a 0001 1010 2200 0108 101a 0010 d049  .J...."........I
        0x0030:  458b 9c93 d0d2 361f b560 5d21 53e5 103d  E.....6..`]!S..=
        0x0040:  0020 b49c 9e25 4adc 02f6 45fc 8a89 155f  .....%J...E...._
        0x0050:  5ab6 97fa 3838 190f d4ba 8904 5586 e92f  Z...88......U../
        0x0060:  38e3 103e 0020 5da3 a46a 3045 1c08 ad84  8..>..]..j0E....
        0x0070:  0c91 636b 8b8e 7332 c23e 0769 dd1d a1d5  ..ck..s2.>.i....
        0x0080:  fde4 acbf 09a9 1018 0040 92e8 6723 0588  .........@..g#..
        0x0090:  151a 6cb1 7ff3 c7cc abaf 1266 a483 cbd4  ..l........f....
        0x00a0:  ed0c c442 bcca c297 25ed 8a93 a09d 5073  ...B....%.....Ps
        0x00b0:  3938 beb5 d2f9 d134 b0b9 42f9 d6d9 d4d3  98.....4..B.....
        0x00c0:  f401 c39a c0fc 0cfe f23c 1049 0006 0037  .........<.I...7
        0x00d0:  2a00 0120 1005 0008 23f9 a170 d046 12cd  *.......#..p.F..
03:13:45.400971 EAP packet (0) v1, len 134, Response (2), id 118, len 134
                 Type Expanded types (254)
        0x0000:  b272 bfdc 3230 381d d941 dbff 888e 0100  .r..208..A......
        0x0010:  0086 0276 0086 fe00 372a 0000 0001 0400  ...v....7*......
        0x0020:  104a 0001 1010 2200 0109 1039 0010 ca0c  .J...."....9....
        0x0030:  c3bf 4602 ac1f b08f f2ee 7486 8c77 1018  ..F.......t..w..
        0x0040:  0040 9e04 2ad5 694a a83e 6948 b2bd 9278  .@..*.iJ.>iH...x
        0x0050:  ac7b 4ceb b069 1ef4 0561 41bd 7020 7ee5  .{L..i...aA.p.~.
        0x0060:  7f82 d306 fe82 6b11 3f2a 3855 5647 2407  ......k.?*8UVG$.
        0x0070:  2b43 a37a 9550 40fe fd8c e1e4 72ef cff8  +C.z.P@.....r...
        0x0080:  fbba 1049 0006 0037 2a00 0120 1005 0008  ...I...7*.......
        0x0090:  454c dc34 ad80 f5d9                      EL.4....
03:13:45.403652 EAP packet (0) v2, len 134, Request (1), id 119, len 134
                 Type Expanded types (254)
        0x0000:  381d d941 dbff b272 bfdc 3230 888e 0200  8..A...r..20....
        0x0010:  0086 0177 0086 fe00 372a 0000 0001 0400  ...w....7*......
        0x0020:  104a 0001 1010 2200 010a 101a 0010 d049  .J...."........I
        0x0030:  458b 9c93 d0d2 361f b560 5d21 53e5 1018  E.....6..`]!S...
        0x0040:  0040 8270 18b1 e39d 3c92 714e 9001 3fad  .@.p....<.qN..?.
        0x0050:  f7ec c20e 4d9d 32af 5820 5bac ef4e 2a4a  ....M.2.X.[..N*J
        0x0060:  d673 d8f6 4632 bbbe e173 662d 8035 eaad  .s..F2...sf-.5..
        0x0070:  4454 734a c083 e0f1 cd9b be82 fe12 d69f  DTsJ............
        0x0080:  2071 1049 0006 0037 2a00 0120 1005 0008  .q.I...7*.......
        0x0090:  0884 058a a81b 8c7e                      .......~
03:13:45.422543 EAP packet (0) v1, len 134, Response (2), id 119, len 134
                 Type Expanded types (254)
        0x0000:  b272 bfdc 3230 381d d941 dbff 888e 0100  .r..208..A......
        0x0010:  0086 0277 0086 fe00 372a 0000 0001 0400  ...w....7*......
        0x0020:  104a 0001 1010 2200 010b 1039 0010 ca0c  .J...."....9....
        0x0030:  c3bf 4602 ac1f b08f f2ee 7486 8c77 1018  ..F.......t..w..
        0x0040:  0040 de82 6053 5e92 facd 5b69 f9e1 1f3e  .@..`S^...[i...>
        0x0050:  16df 015d e08d 4f48 8462 d403 ba12 69a3  ...]..OH.b....i.
        0x0060:  f8a3 2520 a57a 3098 c980 c43e 6882 d531  ..%..z0....>h..1
        0x0070:  e042 dace 384c 7c57 7faa 7752 e789 ba9a  .B..8L|W..wR....
        0x0080:  c449 1049 0006 0037 2a00 0120 1005 0008  .I.I...7*.......
        0x0090:  f941 8fdf b904 40aa                      .A....@.
03:13:45.426498 EAP packet (0) v2, len 230, Request (1), id 120, len 230
                 Type Expanded types (254)
        0x0000:  381d d941 dbff b272 bfdc 3230 888e 0200  8..A...r..20....
        0x0010:  00e6 0178 00e6 fe00 372a 0000 0001 0400  ...x....7*......
        0x0020:  104a 0001 1010 2200 010c 101a 0010 d049  .J...."........I
        0x0030:  458b 9c93 d0d2 361f b560 5d21 53e5 1018  E.....6..`]!S...
        0x0040:  00a0 093b 338b ec51 3ae9 2ad3 0b9c 299c  ...;3..Q:.*...).
        0x0050:  ad69 f0a1 ca7f 5bdc 515a 6275 1144 bcd8  .i....[.QZbu.D..
        0x0060:  63c9 4a7b 8367 b4ce cc55 0637 d7ee 131b  c.J{.g...U.7....
        0x0070:  1b4d 5a2a 25d9 bafa 1666 db8d c8a6 2b82  .MZ*%....f....+.
        0x0080:  f3e3 0f87 d8e2 2462 7f4a 6a6d e867 63df  ......$b.Jjm.gc.
        0x0090:  d39d 34ac b044 2a29 a07b d0a7 b628 6528  ..4..D*).{...(e(
        0x00a0:  af1b 2244 f623 a9dd f78c db4a 20bb 4318  .."D.#.....J..C.
        0x00b0:  0fc5 9d17 4326 5fdc 8485 212d 4fc6 25d4  ....C&_...!-O.%.
        0x00c0:  dedc e78a 070e f829 965a 1a15 e5b0 9cb6  .......).Z......
        0x00d0:  42a4 f1a2 433c 0c05 3206 f82d 6de8 07a1  B...C<..2..-m...
        0x00e0:  3d19 1049 0006 0037 2a00 0120 1005 0008  =..I...7*.......
        0x00f0:  fa47 026e 79c6 cd48                      .G.ny..H
03:13:45.447124 EAP packet (0) v1, len 74, Response (2), id 120, len 74
                 Type Expanded types (254)
        0x0000:  b272 bfdc 3230 381d d941 dbff 888e 0100  .r..208..A......
        0x0010:  004a 0278 004a fe00 372a 0000 0001 0500  .J.x.J..7*......
        0x0020:  104a 0001 1010 2200 010f 101a 0010 d049  .J...."........I
        0x0030:  458b 9c93 d0d2 361f b560 5d21 53e5 1039  E.....6..`]!S..9
        0x0040:  0010 ca0c c3bf 4602 ac1f b08f f2ee 7486  ......F.......t.
        0x0050:  8c77 1049 0006 0037 2a00 0120            .w.I...7*...
03:13:45.469303 EAP packet (0) v2, len 4, Failure (4), id 120, len 4
        0x0000:  381d d941 dbff b272 bfdc 3230 888e 0200  8..A...r..20....
        0x0010:  0004 0478 0004                           ...x..
03:13:46.091005 IP6 (hlim 255, next-header ICMPv6 (58) payload length: 16) fe80::b072:bfff:fedc:3230 > ff02::2: [icmp6 sum ok] ICMP6, router solicitation, length 16
          source link-address option (1), length 8 (1): b2:72:bf:dc:32:30
            0x0000:  b272 bfdc 3230
        0x0000:  3333 0000 0002 b272 bfdc 3230 86dd 6000  33.....r..20..`.
        0x0010:  0000 0010 3aff fe80 0000 0000 0000 b072  ....:..........r
        0x0020:  bfff fedc 3230 ff02 0000 0000 0000 0000  ....20..........
        0x0030:  0000 0000 0002 8500 362f 0000 0000 0101  ........6/......
        0x0040:  b272 bfdc 3230                           .r..20
03:13:46.123160 38:1d:d9:41:db:ff (oui Unknown) > Broadcast Null Unnumbered, xid, Flags [Response], length 6: 01 00
        0x0000:  ffff ffff ffff 381d d941 dbff 0006 0001  ......8..A......
        0x0010:  af81 0100                                ....
03:13:46.156859 EAPOL key (3) v2, len 95
        0x0000:  381d d941 dbff b272 bfdc 3230 888e 0203  8..A...r..20....
        0x0010:  005f 0200 8a00 1000 0000 0000 0000 0104  ._..............
        0x0020:  8a2e 46f4 abf5 8bd8 700e 3172 0ca4 153f  ..F.....p.1r...?
        0x0030:  4a30 d883 51fa 6b4f 0adc 68cc e443 8600  J0..Q.kO..h..C..
        0x0040:  0000 0000 0000 0000 0000 0000 0000 0000  ................
        0x0050:  0000 0000 0000 0000 0000 0000 0000 0000  ................
        0x0060:  0000 0000 0000 0000 0000 0000 0000 0000  ................
        0x0070:  00                                       .
03:13:46.175960 EAPOL key (3) v1, len 117
        0x0000:  b272 bfdc 3230 381d d941 dbff 888e 0103  .r..208..A......
        0x0010:  0075 0201 0a00 0000 0000 0000 0000 01ed  .u..............
        0x0020:  0ea6 7183 e99b abf2 1f88 dc51 2cc0 1c65  ..q........Q,..e
        0x0030:  2a9a 461f beb4 1b00 cd62 d7d7 5f86 af00  *.F......b.._...
        0x0040:  0000 0000 0000 0000 0000 0000 0000 0000  ................
        0x0050:  0000 0000 0000 0000 0000 0000 0000 0095  ................
        0x0060:  5b3a 42c9 2f19 1f92 4da7 d5b3 8fe9 8d00  [:B./...M.......
        0x0070:  1630 1401 0000 0fac 0401 0000 0fac 0401  .0..............
        0x0080:  0000 0fac 0200 00                        .......
03:13:46.181895 EAPOL key (3) v2, len 151
        0x0000:  381d d941 dbff b272 bfdc 3230 888e 0203  8..A...r..20....
        0x0010:  0097 0213 ca00 1000 0000 0000 0000 0204  ................
        0x0020:  8a2e 46f4 abf5 8bd8 700e 3172 0ca4 153f  ..F.....p.1r...?
        0x0030:  4a30 d883 51fa 6b4f 0adc 68cc e443 8600  J0..Q.kO..h..C..
        0x0040:  0000 0000 0000 0000 0000 0000 0000 0000  ................
        0x0050:  0000 0000 0000 0000 0000 0000 0000 00de  ................
        0x0060:  ce33 6f17 1e28 2172 6c9d 80e3 a400 f000  .3o..(!rl.......
        0x0070:  38a5 265a da90 a2ef 9e47 0b23 b53f 37ef  8.&Z.....G.#.?7.
        0x0080:  c892 06bf 058d 18fa 522c c1cb 6926 30df  ........R,..i&0.
        0x0090:  167a ab3f 1ad2 8345 ca44 ec04 ccb0 7589  .z.?...E.D....u.
        0x00a0:  6a7f b2a0 8b96 03dd 26                   j.......&
03:13:46.194127 EAPOL key (3) v1, len 95
        0x0000:  b272 bfdc 3230 381d d941 dbff 888e 0103  .r..208..A......
        0x0010:  005f 0203 0a00 0000 0000 0000 0000 0200  ._..............
        0x0020:  0000 0000 0000 0000 0000 0000 0000 0000  ................
        0x0030:  0000 0000 0000 0000 0000 0000 0000 0000  ................
        0x0040:  0000 0000 0000 0000 0000 0000 0000 0000  ................
        0x0050:  0000 0000 0000 0000 0000 0000 0000 0029  ...............)
        0x0060:  2840 9162 cb59 b08c 0004 7215 ac26 be00  (@.b.Y....r..&..
        0x0070:  00                                       .
03:13:46.541797 IP (tos 0x0, ttl 1, id 24867, offset 0, flags [DF], proto UDP (17), length 218)
    192.168.49.1.4842 > 239.255.255.250.1900: [udp sum ok] UDP, length 190
        0x0000:  0100 5e7f fffa b272 bfdc 3230 0800 4500  ..^....r..20..E.
        0x0010:  00da 6123 4000 0111 364c c0a8 3101 efff  ..a#@...6L..1...
        0x0020:  fffa 12ea 076c 00c6 5182 4e4f 5449 4659  .....l..Q.NOTIFY
        0x0030:  202a 2048 5454 502f 312e 310d 0a48 4f53  .*.HTTP/1.1..HOS
        0x0040:  543a 2032 3339 2e32 3535 2e32 3535 2e32  T:.239.255.255.2
        0x0050:  3530 3a31 3930 300d 0a44 4154 453a 2053  50:1900..DATE:.S
        0x0060:  6174 2c20 3238 204d 6172 2032 3032 3020  at,.28.Mar.2020.
        0x0070:  3033 3a31 333a 3436 2047 4d54 0d0a 4e54  03:13:46.GMT..NT
        0x0080:  3a20 7570 6e70 3a72 6f6f 7464 6576 6963  :.upnp:rootdevic
        0x0090:  650d 0a4e 5453 3a20 7373 6470 3a62 7965  e..NTS:.ssdp:bye
        0x00a0:  6279 650d 0a55 534e 3a20 7575 6964 3a36  bye..USN:.uuid:6
        0x00b0:  3236 6636 6164 322d 6539 6339 2d34 6363  26f6ad2-e9c9-4cc
        0x00c0:  622d 6135 6566 2d33 3537 6630 3461 3561  b-a5ef-357f04a5a
        0x00d0:  3133 303a 3a75 706e 703a 726f 6f74 6465  130::upnp:rootde
        0x00e0:  7669 6365 0d0a 0d0a                      vice....
03:13:46.542831 IP (tos 0x0, ttl 1, id 7521, offset 0, flags [DF], proto UDP (17), length 218)
    192.168.49.1.4842 > 239.255.255.177.1900: [udp sum ok] UDP, length 190
        0x0000:  0100 5e7f ffb1 b272 bfdc 3230 0800 4500  ..^....r..20..E.
        0x0010:  00da 1d61 4000 0111 7a57 c0a8 3101 efff  ...a@...zW..1...
        0x0020:  ffb1 12ea 076c 00c6 4fc5 4e4f 5449 4659  .....l..O.NOTIFY
        0x0030:  202a 2048 5454 502f 312e 310d 0a48 4f53  .*.HTTP/1.1..HOS
        0x0040:  543a 2032 3339 2e32 3535 2e32 3535 2e31  T:.239.255.255.1
        0x0050:  3737 3a31 3930 300d 0a44 4154 453a 2053  77:1900..DATE:.S
        0x0060:  6174 2c20 3238 204d 6172 2032 3032 3020  at,.28.Mar.2020.
        0x0070:  3033 3a31 333a 3436 2047 4d54 0d0a 4e54  03:13:46.GMT..NT
        0x0080:  3a20 7570 6e70 3a72 6f6f 7464 6576 6963  :.upnp:rootdevic
        0x0090:  650d 0a4e 5453 3a20 7373 6470 3a62 7965  e..NTS:.ssdp:bye
        0x00a0:  6279 650d 0a55 534e 3a20 7575 6964 3a36  bye..USN:.uuid:6
        0x00b0:  3236 6636 6164 322d 6539 6339 2d34 6363  26f6ad2-e9c9-4cc
        0x00c0:  622d 6135 6566 2d33 3537 6630 3461 3561  b-a5ef-357f04a5a
        0x00d0:  3133 303a 3a75 706e 703a 726f 6f74 6465  130::upnp:rootde
        0x00e0:  7669 6365 0d0a 0d0a                      vice....
03:13:46.543738 IP (tos 0x0, ttl 1, id 24868, offset 0, flags [DF], proto UDP (17), length 227)
    192.168.49.1.4842 > 239.255.255.250.1900: [udp sum ok] UDP, length 199
        0x0000:  0100 5e7f fffa b272 bfdc 3230 0800 4500  ..^....r..20..E.
        0x0010:  00e3 6124 4000 0111 3642 c0a8 3101 efff  ..a$@...6B..1...
        0x0020:  fffa 12ea 076c 00cf 6e69 4e4f 5449 4659  .....l..niNOTIFY
        0x0030:  202a 2048 5454 502f 312e 310d 0a48 4f53  .*.HTTP/1.1..HOS
        0x0040:  543a 2032 3339 2e32 3535 2e32 3535 2e32  T:.239.255.255.2
        0x0050:  3530 3a31 3930 300d 0a44 4154 453a 2053  50:1900..DATE:.S
        0x0060:  6174 2c20 3238 204d 6172 2032 3032 3020  at,.28.Mar.2020.
        0x0070:  3033 3a31 333a 3436 2047 4d54 0d0a 4e54  03:13:46.GMT..NT
        0x0080:  3a20 7575 6964 3a36 3236 6636 6164 322d  :.uuid:626f6ad2-
        0x0090:  6539 6339 2d34 6363 622d 6135 6566 2d33  e9c9-4ccb-a5ef-3
        0x00a0:  3537 6630 3461 3561 3133 300d 0a4e 5453  57f04a5a130..NTS
        0x00b0:  3a20 7373 6470 3a62 7965 6279 650d 0a55  :.ssdp:byebye..U
        0x00c0:  534e 3a20 7575 6964 3a36 3236 6636 6164  SN:.uuid:626f6ad
        0x00d0:  322d 6539 6339 2d34 6363 622d 6135 6566  2-e9c9-4ccb-a5ef
        0x00e0:  2d33 3537 6630 3461 3561 3133 300d 0a0d  -357f04a5a130...
        0x00f0:  0a                                       .
03:13:46.544552 IP (tos 0x0, ttl 1, id 7522, offset 0, flags [DF], proto UDP (17), length 227)
    192.168.49.1.4842 > 239.255.255.177.1900: [udp sum ok] UDP, length 199
        0x0000:  0100 5e7f ffb1 b272 bfdc 3230 0800 4500  ..^....r..20..E.
        0x0010:  00e3 1d62 4000 0111 7a4d c0a8 3101 efff  ...b@...zM..1...
        0x0020:  ffb1 12ea 076c 00cf 6cac 4e4f 5449 4659  .....l..l.NOTIFY
        0x0030:  202a 2048 5454 502f 312e 310d 0a48 4f53  .*.HTTP/1.1..HOS
        0x0040:  543a 2032 3339 2e32 3535 2e32 3535 2e31  T:.239.255.255.1
        0x0050:  3737 3a31 3930 300d 0a44 4154 453a 2053  77:1900..DATE:.S
        0x0060:  6174 2c20 3238 204d 6172 2032 3032 3020  at,.28.Mar.2020.
        0x0070:  3033 3a31 333a 3436 2047 4d54 0d0a 4e54  03:13:46.GMT..NT
        0x0080:  3a20 7575 6964 3a36 3236 6636 6164 322d  :.uuid:626f6ad2-
        0x0090:  6539 6339 2d34 6363 622d 6135 6566 2d33  e9c9-4ccb-a5ef-3
        0x00a0:  3537 6630 3461 3561 3133 300d 0a4e 5453  57f04a5a130..NTS
        0x00b0:  3a20 7373 6470 3a62 7965 6279 650d 0a55  :.ssdp:byebye..U
        0x00c0:  534e 3a20 7575 6964 3a36 3236 6636 6164  SN:.uuid:626f6ad
        0x00d0:  322d 6539 6339 2d34 6363 622d 6135 6566  2-e9c9-4ccb-a5ef
        0x00e0:  2d33 3537 6630 3461 3561 3133 300d 0a0d  -357f04a5a130...
        0x00f0:  0a                                       .
03:13:46.545194 IP (tos 0x0, ttl 1, id 24869, offset 0, flags [DF], proto UDP (17), length 274)
    192.168.49.1.4842 > 239.255.255.250.1900: [udp sum ok] UDP, length 246
        0x0000:  0100 5e7f fffa b272 bfdc 3230 0800 4500  ..^....r..20..E.
        0x0010:  0112 6125 4000 0111 3612 c0a8 3101 efff  ..a%@...6...1...
        0x0020:  fffa 12ea 076c 00fe f2b3 4e4f 5449 4659  .....l....NOTIFY
        0x0030:  202a 2048 5454 502f 312e 310d 0a48 4f53  .*.HTTP/1.1..HOS
        0x0040:  543a 2032 3339 2e32 3535 2e32 3535 2e32  T:.239.255.255.2
        0x0050:  3530 3a31 3930 300d 0a44 4154 453a 2053  50:1900..DATE:.S
        0x0060:  6174 2c20 3238 204d 6172 2032 3032 3020  at,.28.Mar.2020.
        0x0070:  3033 3a31 333a 3436 2047 4d54 0d0a 4e54  03:13:46.GMT..NT
        0x0080:  3a20 7572 6e3a 7361 6d73 756e 672e 636f  :.urn:samsung.co
        0x0090:  6d3a 6465 7669 6365 3a46 696c 6554 7261  m:device:FileTra
        0x00a0:  6e73 6665 7253 6572 7665 723a 310d 0a4e  nsferServer:1..N
        0x00b0:  5453 3a20 7373 6470 3a62 7965 6279 650d  TS:.ssdp:byebye.
        0x00c0:  0a55 534e 3a20 7575 6964 3a36 3236 6636  .USN:.uuid:626f6
        0x00d0:  6164 322d 6539 6339 2d34 6363 622d 6135  ad2-e9c9-4ccb-a5
        0x00e0:  6566 2d33 3537 6630 3461 3561 3133 303a  ef-357f04a5a130:
        0x00f0:  3a75 726e 3a73 616d 7375 6e67 2e63 6f6d  :urn:samsung.com
        0x0100:  3a64 6576 6963 653a 4669 6c65 5472 616e  :device:FileTran
        0x0110:  7366 6572 5365 7276 6572 3a31 0d0a 0d0a  sferServer:1....
03:13:46.545676 IP (tos 0x0, ttl 1, id 7523, offset 0, flags [DF], proto UDP (17), length 274)
    192.168.49.1.4842 > 239.255.255.177.1900: [udp sum ok] UDP, length 246
        0x0000:  0100 5e7f ffb1 b272 bfdc 3230 0800 4500  ..^....r..20..E.
        0x0010:  0112 1d63 4000 0111 7a1d c0a8 3101 efff  ...c@...z...1...
        0x0020:  ffb1 12ea 076c 00fe f0f6 4e4f 5449 4659  .....l....NOTIFY
        0x0030:  202a 2048 5454 502f 312e 310d 0a48 4f53  .*.HTTP/1.1..HOS
        0x0040:  543a 2032 3339 2e32 3535 2e32 3535 2e31  T:.239.255.255.1
        0x0050:  3737 3a31 3930 300d 0a44 4154 453a 2053  77:1900..DATE:.S
        0x0060:  6174 2c20 3238 204d 6172 2032 3032 3020  at,.28.Mar.2020.
        0x0070:  3033 3a31 333a 3436 2047 4d54 0d0a 4e54  03:13:46.GMT..NT
        0x0080:  3a20 7572 6e3a 7361 6d73 756e 672e 636f  :.urn:samsung.co
        0x0090:  6d3a 6465 7669 6365 3a46 696c 6554 7261  m:device:FileTra
        0x00a0:  6e73 6665 7253 6572 7665 723a 310d 0a4e  nsferServer:1..N
        0x00b0:  5453 3a20 7373 6470 3a62 7965 6279 650d  TS:.ssdp:byebye.
        0x00c0:  0a55 534e 3a20 7575 6964 3a36 3236 6636  .USN:.uuid:626f6
        0x00d0:  6164 322d 6539 6339 2d34 6363 622d 6135  ad2-e9c9-4ccb-a5
        0x00e0:  6566 2d33 3537 6630 3461 3561 3133 303a  ef-357f04a5a130:
        0x00f0:  3a75 726e 3a73 616d 7375 6e67 2e63 6f6d  :urn:samsung.com
        0x0100:  3a64 6576 6963 653a 4669 6c65 5472 616e  :device:FileTran
        0x0110:  7366 6572 5365 7276 6572 3a31 0d0a 0d0a  sferServer:1....
03:13:46.546433 IP (tos 0x0, ttl 1, id 24870, offset 0, flags [DF], proto UDP (17), length 266)
    192.168.49.1.4842 > 239.255.255.250.1900: [udp sum ok] UDP, length 238
        0x0000:  0100 5e7f fffa b272 bfdc 3230 0800 4500  ..^....r..20..E.
        0x0010:  010a 6126 4000 0111 3619 c0a8 3101 efff  ..a&@...6...1...
        0x0020:  fffa 12ea 076c 00f6 6233 4e4f 5449 4659  .....l..b3NOTIFY
        0x0030:  202a 2048 5454 502f 312e 310d 0a48 4f53  .*.HTTP/1.1..HOS
        0x0040:  543a 2032 3339 2e32 3535 2e32 3535 2e32  T:.239.255.255.2
        0x0050:  3530 3a31 3930 300d 0a44 4154 453a 2053  50:1900..DATE:.S
        0x0060:  6174 2c20 3238 204d 6172 2032 3032 3020  at,.28.Mar.2020.
        0x0070:  3033 3a31 333a 3436 2047 4d54 0d0a 4e54  03:13:46.GMT..NT
        0x0080:  3a20 7572 6e3a 7361 6d73 756e 672e 636f  :.urn:samsung.co
        0x0090:  6d3a 7365 7276 6963 653a 4669 6c65 5472  m:service:FileTr
        0x00a0:  616e 7370 6f72 743a 310d 0a4e 5453 3a20  ansport:1..NTS:.
        0x00b0:  7373 6470 3a62 7965 6279 650d 0a55 534e  ssdp:byebye..USN
        0x00c0:  3a20 7575 6964 3a36 3236 6636 6164 322d  :.uuid:626f6ad2-
        0x00d0:  6539 6339 2d34 6363 622d 6135 6566 2d33  e9c9-4ccb-a5ef-3
        0x00e0:  3537 6630 3461 3561 3133 303a 3a75 726e  57f04a5a130::urn
        0x00f0:  3a73 616d 7375 6e67 2e63 6f6d 3a73 6572  :samsung.com:ser
        0x0100:  7669 6365 3a46 696c 6554 7261 6e73 706f  vice:FileTranspo
        0x0110:  7274 3a31 0d0a 0d0a                      rt:1....
03:13:46.547229 IP (tos 0x0, ttl 1, id 7524, offset 0, flags [DF], proto UDP (17), length 266)
    192.168.49.1.4842 > 239.255.255.177.1900: [udp sum ok] UDP, length 238
        0x0000:  0100 5e7f ffb1 b272 bfdc 3230 0800 4500  ..^....r..20..E.
        0x0010:  010a 1d64 4000 0111 7a24 c0a8 3101 efff  ...d@...z$..1...
        0x0020:  ffb1 12ea 076c 00f6 6076 4e4f 5449 4659  .....l..`vNOTIFY
        0x0030:  202a 2048 5454 502f 312e 310d 0a48 4f53  .*.HTTP/1.1..HOS
        0x0040:  543a 2032 3339 2e32 3535 2e32 3535 2e31  T:.239.255.255.1
        0x0050:  3737 3a31 3930 300d 0a44 4154 453a 2053  77:1900..DATE:.S
        0x0060:  6174 2c20 3238 204d 6172 2032 3032 3020  at,.28.Mar.2020.
        0x0070:  3033 3a31 333a 3436 2047 4d54 0d0a 4e54  03:13:46.GMT..NT
        0x0080:  3a20 7572 6e3a 7361 6d73 756e 672e 636f  :.urn:samsung.co
        0x0090:  6d3a 7365 7276 6963 653a 4669 6c65 5472  m:service:FileTr
        0x00a0:  616e 7370 6f72 743a 310d 0a4e 5453 3a20  ansport:1..NTS:.
        0x00b0:  7373 6470 3a62 7965 6279 650d 0a55 534e  ssdp:byebye..USN
        0x00c0:  3a20 7575 6964 3a36 3236 6636 6164 322d  :.uuid:626f6ad2-
        0x00d0:  6539 6339 2d34 6363 622d 6135 6566 2d33  e9c9-4ccb-a5ef-3
        0x00e0:  3537 6630 3461 3561 3133 303a 3a75 726e  57f04a5a130::urn
        0x00f0:  3a73 616d 7375 6e67 2e63 6f6d 3a73 6572  :samsung.com:ser
        0x0100:  7669 6365 3a46 696c 6554 7261 6e73 706f  vice:FileTranspo
        0x0110:  7274 3a31 0d0a 0d0a                      rt:1....
03:13:46.549164 IP (tos 0x0, ttl 1, id 24871, offset 0, flags [DF], proto UDP (17), length 218)
    192.168.49.1.4842 > 239.255.255.250.1900: [udp sum ok] UDP, length 190
        0x0000:  0100 5e7f fffa b272 bfdc 3230 0800 4500  ..^....r..20..E.
        0x0010:  00da 6127 4000 0111 3648 c0a8 3101 efff  ..a'@...6H..1...
        0x0020:  fffa 12ea 076c 00c6 5182 4e4f 5449 4659  .....l..Q.NOTIFY
        0x0030:  202a 2048 5454 502f 312e 310d 0a48 4f53  .*.HTTP/1.1..HOS
        0x0040:  543a 2032 3339 2e32 3535 2e32 3535 2e32  T:.239.255.255.2
        0x0050:  3530 3a31 3930 300d 0a44 4154 453a 2053  50:1900..DATE:.S
        0x0060:  6174 2c20 3238 204d 6172 2032 3032 3020  at,.28.Mar.2020.
        0x0070:  3033 3a31 333a 3436 2047 4d54 0d0a 4e54  03:13:46.GMT..NT
        0x0080:  3a20 7570 6e70 3a72 6f6f 7464 6576 6963  :.upnp:rootdevic
        0x0090:  650d 0a4e 5453 3a20 7373 6470 3a62 7965  e..NTS:.ssdp:bye
        0x00a0:  6279 650d 0a55 534e 3a20 7575 6964 3a36  bye..USN:.uuid:6
        0x00b0:  3236 6636 6164 322d 6539 6339 2d34 6363  26f6ad2-e9c9-4cc
        0x00c0:  622d 6135 6566 2d33 3537 6630 3461 3561  b-a5ef-357f04a5a
        0x00d0:  3133 303a 3a75 706e 703a 726f 6f74 6465  130::upnp:rootde
        0x00e0:  7669 6365 0d0a 0d0a                      vice....
03:13:46.549519 IP (tos 0x0, ttl 1, id 7525, offset 0, flags [DF], proto UDP (17), length 218)
    192.168.49.1.4842 > 239.255.255.177.1900: [udp sum ok] UDP, length 190
        0x0000:  0100 5e7f ffb1 b272 bfdc 3230 0800 4500  ..^....r..20..E.
        0x0010:  00da 1d65 4000 0111 7a53 c0a8 3101 efff  ...e@...zS..1...
        0x0020:  ffb1 12ea 076c 00c6 4fc5 4e4f 5449 4659  .....l..O.NOTIFY
        0x0030:  202a 2048 5454 502f 312e 310d 0a48 4f53  .*.HTTP/1.1..HOS
        0x0040:  543a 2032 3339 2e32 3535 2e32 3535 2e31  T:.239.255.255.1
        0x0050:  3737 3a31 3930 300d 0a44 4154 453a 2053  77:1900..DATE:.S
        0x0060:  6174 2c20 3238 204d 6172 2032 3032 3020  at,.28.Mar.2020.
        0x0070:  3033 3a31 333a 3436 2047 4d54 0d0a 4e54  03:13:46.GMT..NT
        0x0080:  3a20 7570 6e70 3a72 6f6f 7464 6576 6963  :.upnp:rootdevic
        0x0090:  650d 0a4e 5453 3a20 7373 6470 3a62 7965  e..NTS:.ssdp:bye
        0x00a0:  6279 650d 0a55 534e 3a20 7575 6964 3a36  bye..USN:.uuid:6
        0x00b0:  3236 6636 6164 322d 6539 6339 2d34 6363  26f6ad2-e9c9-4cc
        0x00c0:  622d 6135 6566 2d33 3537 6630 3461 3561  b-a5ef-357f04a5a
        0x00d0:  3133 303a 3a75 706e 703a 726f 6f74 6465  130::upnp:rootde
        0x00e0:  7669 6365 0d0a 0d0a                      vice....
03:13:46.550187 IP (tos 0x0, ttl 1, id 24872, offset 0, flags [DF], proto UDP (17), length 227)
    192.168.49.1.4842 > 239.255.255.250.1900: [udp sum ok] UDP, length 199
        0x0000:  0100 5e7f fffa b272 bfdc 3230 0800 4500  ..^....r..20..E.
        0x0010:  00e3 6128 4000 0111 363e c0a8 3101 efff  ..a(@...6>..1...
        0x0020:  fffa 12ea 076c 00cf 6e69 4e4f 5449 4659  .....l..niNOTIFY
        0x0030:  202a 2048 5454 502f 312e 310d 0a48 4f53  .*.HTTP/1.1..HOS
        0x0040:  543a 2032 3339 2e32 3535 2e32 3535 2e32  T:.239.255.255.2
        0x0050:  3530 3a31 3930 300d 0a44 4154 453a 2053  50:1900..DATE:.S
        0x0060:  6174 2c20 3238 204d 6172 2032 3032 3020  at,.28.Mar.2020.
        0x0070:  3033 3a31 333a 3436 2047 4d54 0d0a 4e54  03:13:46.GMT..NT
        0x0080:  3a20 7575 6964 3a36 3236 6636 6164 322d  :.uuid:626f6ad2-
        0x0090:  6539 6339 2d34 6363 622d 6135 6566 2d33  e9c9-4ccb-a5ef-3
        0x00a0:  3537 6630 3461 3561 3133 300d 0a4e 5453  57f04a5a130..NTS
        0x00b0:  3a20 7373 6470 3a62 7965 6279 650d 0a55  :.ssdp:byebye..U
        0x00c0:  534e 3a20 7575 6964 3a36 3236 6636 6164  SN:.uuid:626f6ad
        0x00d0:  322d 6539 6339 2d34 6363 622d 6135 6566  2-e9c9-4ccb-a5ef
        0x00e0:  2d33 3537 6630 3461 3561 3133 300d 0a0d  -357f04a5a130...
        0x00f0:  0a                                       .
03:13:46.554513 IP (tos 0x0, ttl 1, id 7526, offset 0, flags [DF], proto UDP (17), length 227)
    192.168.49.1.4842 > 239.255.255.177.1900: [udp sum ok] UDP, length 199
        0x0000:  0100 5e7f ffb1 b272 bfdc 3230 0800 4500  ..^....r..20..E.
        0x0010:  00e3 1d66 4000 0111 7a49 c0a8 3101 efff  ...f@...zI..1...
        0x0020:  ffb1 12ea 076c 00cf 6cac 4e4f 5449 4659  .....l..l.NOTIFY
        0x0030:  202a 2048 5454 502f 312e 310d 0a48 4f53  .*.HTTP/1.1..HOS
        0x0040:  543a 2032 3339 2e32 3535 2e32 3535 2e31  T:.239.255.255.1
        0x0050:  3737 3a31 3930 300d 0a44 4154 453a 2053  77:1900..DATE:.S
        0x0060:  6174 2c20 3238 204d 6172 2032 3032 3020  at,.28.Mar.2020.
        0x0070:  3033 3a31 333a 3436 2047 4d54 0d0a 4e54  03:13:46.GMT..NT
        0x0080:  3a20 7575 6964 3a36 3236 6636 6164 322d  :.uuid:626f6ad2-
        0x0090:  6539 6339 2d34 6363 622d 6135 6566 2d33  e9c9-4ccb-a5ef-3
        0x00a0:  3537 6630 3461 3561 3133 300d 0a4e 5453  57f04a5a130..NTS
        0x00b0:  3a20 7373 6470 3a62 7965 6279 650d 0a55  :.ssdp:byebye..U
        0x00c0:  534e 3a20 7575 6964 3a36 3236 6636 6164  SN:.uuid:626f6ad
        0x00d0:  322d 6539 6339 2d34 6363 622d 6135 6566  2-e9c9-4ccb-a5ef
        0x00e0:  2d33 3537 6630 3461 3561 3133 300d 0a0d  -357f04a5a130...
        0x00f0:  0a                                       .
03:13:46.555210 IP (tos 0x0, ttl 1, id 24873, offset 0, flags [DF], proto UDP (17), length 274)
    192.168.49.1.4842 > 239.255.255.250.1900: [udp sum ok] UDP, length 246
        0x0000:  0100 5e7f fffa b272 bfdc 3230 0800 4500  ..^....r..20..E.
        0x0010:  0112 6129 4000 0111 360e c0a8 3101 efff  ..a)@...6...1...
        0x0020:  fffa 12ea 076c 00fe f2b3 4e4f 5449 4659  .....l....NOTIFY
        0x0030:  202a 2048 5454 502f 312e 310d 0a48 4f53  .*.HTTP/1.1..HOS
        0x0040:  543a 2032 3339 2e32 3535 2e32 3535 2e32  T:.239.255.255.2
        0x0050:  3530 3a31 3930 300d 0a44 4154 453a 2053  50:1900..DATE:.S
        0x0060:  6174 2c20 3238 204d 6172 2032 3032 3020  at,.28.Mar.2020.
        0x0070:  3033 3a31 333a 3436 2047 4d54 0d0a 4e54  03:13:46.GMT..NT
        0x0080:  3a20 7572 6e3a 7361 6d73 756e 672e 636f  :.urn:samsung.co
        0x0090:  6d3a 6465 7669 6365 3a46 696c 6554 7261  m:device:FileTra
        0x00a0:  6e73 6665 7253 6572 7665 723a 310d 0a4e  nsferServer:1..N
        0x00b0:  5453 3a20 7373 6470 3a62 7965 6279 650d  TS:.ssdp:byebye.
        0x00c0:  0a55 534e 3a20 7575 6964 3a36 3236 6636  .USN:.uuid:626f6
        0x00d0:  6164 322d 6539 6339 2d34 6363 622d 6135  ad2-e9c9-4ccb-a5
        0x00e0:  6566 2d33 3537 6630 3461 3561 3133 303a  ef-357f04a5a130:
        0x00f0:  3a75 726e 3a73 616d 7375 6e67 2e63 6f6d  :urn:samsung.com
        0x0100:  3a64 6576 6963 653a 4669 6c65 5472 616e  :device:FileTran
        0x0110:  7366 6572 5365 7276 6572 3a31 0d0a 0d0a  sferServer:1....
03:13:46.555567 IP (tos 0x0, ttl 1, id 7527, offset 0, flags [DF], proto UDP (17), length 274)
    192.168.49.1.4842 > 239.255.255.177.1900: [udp sum ok] UDP, length 246
        0x0000:  0100 5e7f ffb1 b272 bfdc 3230 0800 4500  ..^....r..20..E.
        0x0010:  0112 1d67 4000 0111 7a19 c0a8 3101 efff  ...g@...z...1...
        0x0020:  ffb1 12ea 076c 00fe f0f6 4e4f 5449 4659  .....l....NOTIFY
        0x0030:  202a 2048 5454 502f 312e 310d 0a48 4f53  .*.HTTP/1.1..HOS
        0x0040:  543a 2032 3339 2e32 3535 2e32 3535 2e31  T:.239.255.255.1
        0x0050:  3737 3a31 3930 300d 0a44 4154 453a 2053  77:1900..DATE:.S
        0x0060:  6174 2c20 3238 204d 6172 2032 3032 3020  at,.28.Mar.2020.
        0x0070:  3033 3a31 333a 3436 2047 4d54 0d0a 4e54  03:13:46.GMT..NT
        0x0080:  3a20 7572 6e3a 7361 6d73 756e 672e 636f  :.urn:samsung.co
        0x0090:  6d3a 6465 7669 6365 3a46 696c 6554 7261  m:device:FileTra
        0x00a0:  6e73 6665 7253 6572 7665 723a 310d 0a4e  nsferServer:1..N
        0x00b0:  5453 3a20 7373 6470 3a62 7965 6279 650d  TS:.ssdp:byebye.
        0x00c0:  0a55 534e 3a20 7575 6964 3a36 3236 6636  .USN:.uuid:626f6
        0x00d0:  6164 322d 6539 6339 2d34 6363 622d 6135  ad2-e9c9-4ccb-a5
        0x00e0:  6566 2d33 3537 6630 3461 3561 3133 303a  ef-357f04a5a130:
        0x00f0:  3a75 726e 3a73 616d 7375 6e67 2e63 6f6d  :urn:samsung.com
        0x0100:  3a64 6576 6963 653a 4669 6c65 5472 616e  :device:FileTran
        0x0110:  7366 6572 5365 7276 6572 3a31 0d0a 0d0a  sferServer:1....
03:13:46.556100 IP (tos 0x0, ttl 1, id 24874, offset 0, flags [DF], proto UDP (17), length 266)
    192.168.49.1.4842 > 239.255.255.250.1900: [udp sum ok] UDP, length 238
        0x0000:  0100 5e7f fffa b272 bfdc 3230 0800 4500  ..^....r..20..E.
        0x0010:  010a 612a 4000 0111 3615 c0a8 3101 efff  ..a*@...6...1...
        0x0020:  fffa 12ea 076c 00f6 6233 4e4f 5449 4659  .....l..b3NOTIFY
        0x0030:  202a 2048 5454 502f 312e 310d 0a48 4f53  .*.HTTP/1.1..HOS
        0x0040:  543a 2032 3339 2e32 3535 2e32 3535 2e32  T:.239.255.255.2
        0x0050:  3530 3a31 3930 300d 0a44 4154 453a 2053  50:1900..DATE:.S
        0x0060:  6174 2c20 3238 204d 6172 2032 3032 3020  at,.28.Mar.2020.
        0x0070:  3033 3a31 333a 3436 2047 4d54 0d0a 4e54  03:13:46.GMT..NT
        0x0080:  3a20 7572 6e3a 7361 6d73 756e 672e 636f  :.urn:samsung.co
        0x0090:  6d3a 7365 7276 6963 653a 4669 6c65 5472  m:service:FileTr
        0x00a0:  616e 7370 6f72 743a 310d 0a4e 5453 3a20  ansport:1..NTS:.
        0x00b0:  7373 6470 3a62 7965 6279 650d 0a55 534e  ssdp:byebye..USN
        0x00c0:  3a20 7575 6964 3a36 3236 6636 6164 322d  :.uuid:626f6ad2-
        0x00d0:  6539 6339 2d34 6363 622d 6135 6566 2d33  e9c9-4ccb-a5ef-3
        0x00e0:  3537 6630 3461 3561 3133 303a 3a75 726e  57f04a5a130::urn
        0x00f0:  3a73 616d 7375 6e67 2e63 6f6d 3a73 6572  :samsung.com:ser
        0x0100:  7669 6365 3a46 696c 6554 7261 6e73 706f  vice:FileTranspo
        0x0110:  7274 3a31 0d0a 0d0a                      rt:1....
03:13:46.556728 IP (tos 0x0, ttl 1, id 7528, offset 0, flags [DF], proto UDP (17), length 266)
    192.168.49.1.4842 > 239.255.255.177.1900: [udp sum ok] UDP, length 238
        0x0000:  0100 5e7f ffb1 b272 bfdc 3230 0800 4500  ..^....r..20..E.
        0x0010:  010a 1d68 4000 0111 7a20 c0a8 3101 efff  ...h@...z...1...
        0x0020:  ffb1 12ea 076c 00f6 6076 4e4f 5449 4659  .....l..`vNOTIFY
        0x0030:  202a 2048 5454 502f 312e 310d 0a48 4f53  .*.HTTP/1.1..HOS
        0x0040:  543a 2032 3339 2e32 3535 2e32 3535 2e31  T:.239.255.255.1
        0x0050:  3737 3a31 3930 300d 0a44 4154 453a 2053  77:1900..DATE:.S
        0x0060:  6174 2c20 3238 204d 6172 2032 3032 3020  at,.28.Mar.2020.
        0x0070:  3033 3a31 333a 3436 2047 4d54 0d0a 4e54  03:13:46.GMT..NT
        0x0080:  3a20 7572 6e3a 7361 6d73 756e 672e 636f  :.urn:samsung.co
        0x0090:  6d3a 7365 7276 6963 653a 4669 6c65 5472  m:service:FileTr
        0x00a0:  616e 7370 6f72 743a 310d 0a4e 5453 3a20  ansport:1..NTS:.
        0x00b0:  7373 6470 3a62 7965 6279 650d 0a55 534e  ssdp:byebye..USN
        0x00c0:  3a20 7575 6964 3a36 3236 6636 6164 322d  :.uuid:626f6ad2-
        0x00d0:  6539 6339 2d34 6363 622d 6135 6566 2d33  e9c9-4ccb-a5ef-3
        0x00e0:  3537 6630 3461 3561 3133 303a 3a75 726e  57f04a5a130::urn
        0x00f0:  3a73 616d 7375 6e67 2e63 6f6d 3a73 6572  :samsung.com:ser
        0x0100:  7669 6365 3a46 696c 6554 7261 6e73 706f  vice:FileTranspo
        0x0110:  7274 3a31 0d0a 0d0a                      rt:1....
03:13:46.557471 IP (tos 0xc0, ttl 1, id 0, offset 0, flags [DF], proto IGMP (2), length 48, options (RA))
    192.168.49.1 > 224.0.0.22: igmp v3 report, 2 group record(s) [gaddr 239.255.255.177 to_ex { }] [gaddr 239.255.255.250 to_ex { }]
        0x0000:  0100 5e00 0016 b272 bfdc 3230 0800 46c0  ..^....r..20..F.
        0x0010:  0030 0000 4000 0102 1248 c0a8 3101 e000  .0..@....H..1...
        0x0020:  0016 9404 0000 2200 f650 0000 0002 0400  ......"..P......
        0x0030:  0000 efff ffb1 0400 0000 efff fffa       ..............
03:13:46.637875 IP (tos 0xc0, ttl 1, id 0, offset 0, flags [DF], proto IGMP (2), length 48, options (RA))
    192.168.49.1 > 224.0.0.22: igmp v3 report, 2 group record(s) [gaddr 239.255.255.177 to_ex { }] [gaddr 239.255.255.250 to_ex { }]
        0x0000:  0100 5e00 0016 b272 bfdc 3230 0800 46c0  ..^....r..20..F.
        0x0010:  0030 0000 4000 0102 1248 c0a8 3101 e000  .0..@....H..1...
        0x0020:  0016 9404 0000 2200 f650 0000 0002 0400  ......"..P......
        0x0030:  0000 efff ffb1 0400 0000 efff fffa       ..............
03:13:46.766102 IP (tos 0x0, ttl 1, id 24879, offset 0, flags [DF], proto UDP (17), length 412)
    192.168.49.1.4842 > 239.255.255.250.1900: [udp sum ok] UDP, length 384
        0x0000:  0100 5e7f fffa b272 bfdc 3230 0800 4500  ..^....r..20..E.
        0x0010:  019c 612f 4000 0111 357e c0a8 3101 efff  ..a/@...5~..1...
        0x0020:  fffa 12ea 076c 0188 7ef6 4e4f 5449 4659  .....l..~.NOTIFY
        0x0030:  202a 2048 5454 502f 312e 310d 0a48 4f53  .*.HTTP/1.1..HOS
        0x0040:  543a 2032 3339 2e32 3535 2e32 3535 2e32  T:.239.255.255.2
        0x0050:  3530 3a31 3930 300d 0a43 4143 4845 2d43  50:1900..CACHE-C
        0x0060:  4f4e 5452 4f4c 3a20 6d61 782d 6167 653d  ONTROL:.max-age=
        0x0070:  3138 3030 0d0a 4441 5445 3a20 5361 742c  1800..DATE:.Sat,
        0x0080:  2032 3820 4d61 7220 3230 3230 2030 333a  .28.Mar.2020.03:
        0x0090:  3133 3a34 3620 474d 540d 0a4c 4f43 4154  13:46.GMT..LOCAT
        0x00a0:  494f 4e3a 2068 7474 703a 2f2f 3139 322e  ION:.http://192.
        0x00b0:  3136 382e 3439 2e31 3a38 3338 372f 7374  168.49.1:8387/st
        0x00c0:  6f72 6167 652f 656d 756c 6174 6564 2f30  orage/emulated/0
        0x00d0:  2f64 6174 612f 7573 6572 2f30 2f63 6f6d  /data/user/0/com
        0x00e0:  2e73 616d 7375 6e67 2e61 6e64 726f 6964  .samsung.android
        0x00f0:  2e61 6c6c 7368 6172 652e 7365 7276 6963  .allshare.servic
        0x0100:  652e 6669 6c65 7368 6172 652f 6669 6c65  e.fileshare/file
        0x0110:  732f 0d0a 4e54 3a20 7570 6e70 3a72 6f6f  s/..NT:.upnp:roo
        0x0120:  7464 6576 6963 650d 0a4e 5453 3a20 7373  tdevice..NTS:.ss
        0x0130:  6470 3a61 6c69 7665 0d0a 5345 5256 4552  dp:alive..SERVER
        0x0140:  3a20 5348 502c 2055 506e 502f 312e 302c  :.SHP,.UPnP/1.0,
        0x0150:  2053 616d 7375 6e67 2055 506e 5020 5344  .Samsung.UPnP.SD
        0x0160:  4b2f 312e 300d 0a55 534e 3a20 7575 6964  K/1.0..USN:.uuid
        0x0170:  3a36 3236 6636 6164 322d 6539 6339 2d34  :626f6ad2-e9c9-4
        0x0180:  6363 622d 6135 6566 2d33 3537 6630 3461  ccb-a5ef-357f04a
        0x0190:  3561 3133 303a 3a75 706e 703a 726f 6f74  5a130::upnp:root
        0x01a0:  6465 7669 6365 0d0a 0d0a                 device....
03:13:46.785566 IP (tos 0x0, ttl 1, id 7544, offset 0, flags [DF], proto UDP (17), length 412)
    192.168.49.1.4842 > 239.255.255.177.1900: [udp sum ok] UDP, length 384
        0x0000:  0100 5e7f ffb1 b272 bfdc 3230 0800 4500  ..^....r..20..E.
        0x0010:  019c 1d78 4000 0111 797e c0a8 3101 efff  ...x@...y~..1...
        0x0020:  ffb1 12ea 076c 0188 7d39 4e4f 5449 4659  .....l..}9NOTIFY
        0x0030:  202a 2048 5454 502f 312e 310d 0a48 4f53  .*.HTTP/1.1..HOS
        0x0040:  543a 2032 3339 2e32 3535 2e32 3535 2e31  T:.239.255.255.1
        0x0050:  3737 3a31 3930 300d 0a43 4143 4845 2d43  77:1900..CACHE-C
        0x0060:  4f4e 5452 4f4c 3a20 6d61 782d 6167 653d  ONTROL:.max-age=
        0x0070:  3138 3030 0d0a 4441 5445 3a20 5361 742c  1800..DATE:.Sat,
        0x0080:  2032 3820 4d61 7220 3230 3230 2030 333a  .28.Mar.2020.03:
        0x0090:  3133 3a34 3620 474d 540d 0a4c 4f43 4154  13:46.GMT..LOCAT
        0x00a0:  494f 4e3a 2068 7474 703a 2f2f 3139 322e  ION:.http://192.
        0x00b0:  3136 382e 3439 2e31 3a38 3338 372f 7374  168.49.1:8387/st
        0x00c0:  6f72 6167 652f 656d 756c 6174 6564 2f30  orage/emulated/0
        0x00d0:  2f64 6174 612f 7573 6572 2f30 2f63 6f6d  /data/user/0/com
        0x00e0:  2e73 616d 7375 6e67 2e61 6e64 726f 6964  .samsung.android
        0x00f0:  2e61 6c6c 7368 6172 652e 7365 7276 6963  .allshare.servic
        0x0100:  652e 6669 6c65 7368 6172 652f 6669 6c65  e.fileshare/file
        0x0110:  732f 0d0a 4e54 3a20 7570 6e70 3a72 6f6f  s/..NT:.upnp:roo
        0x0120:  7464 6576 6963 650d 0a4e 5453 3a20 7373  tdevice..NTS:.ss
        0x0130:  6470 3a61 6c69 7665 0d0a 5345 5256 4552  dp:alive..SERVER
        0x0140:  3a20 5348 502c 2055 506e 502f 312e 302c  :.SHP,.UPnP/1.0,
        0x0150:  2053 616d 7375 6e67 2055 506e 5020 5344  .Samsung.UPnP.SD
        0x0160:  4b2f 312e 300d 0a55 534e 3a20 7575 6964  K/1.0..USN:.uuid
        0x0170:  3a36 3236 6636 6164 322d 6539 6339 2d34  :626f6ad2-e9c9-4
        0x0180:  6363 622d 6135 6566 2d33 3537 6630 3461  ccb-a5ef-357f04a
        0x0190:  3561 3133 303a 3a75 706e 703a 726f 6f74  5a130::upnp:root
        0x01a0:  6465 7669 6365 0d0a 0d0a                 device....
03:13:46.791211 IP (tos 0x0, ttl 1, id 24882, offset 0, flags [DF], proto UDP (17), length 421)
    192.168.49.1.4842 > 239.255.255.250.1900: [udp sum ok] UDP, length 393
        0x0000:  0100 5e7f fffa b272 bfdc 3230 0800 4500  ..^....r..20..E.
        0x0010:  01a5 6132 4000 0111 3572 c0a8 3101 efff  ..a2@...5r..1...
        0x0020:  fffa 12ea 076c 0191 9bdd 4e4f 5449 4659  .....l....NOTIFY
        0x0030:  202a 2048 5454 502f 312e 310d 0a48 4f53  .*.HTTP/1.1..HOS
        0x0040:  543a 2032 3339 2e32 3535 2e32 3535 2e32  T:.239.255.255.2
        0x0050:  3530 3a31 3930 300d 0a43 4143 4845 2d43  50:1900..CACHE-C
        0x0060:  4f4e 5452 4f4c 3a20 6d61 782d 6167 653d  ONTROL:.max-age=
        0x0070:  3138 3030 0d0a 4441 5445 3a20 5361 742c  1800..DATE:.Sat,
        0x0080:  2032 3820 4d61 7220 3230 3230 2030 333a  .28.Mar.2020.03:
        0x0090:  3133 3a34 3620 474d 540d 0a4c 4f43 4154  13:46.GMT..LOCAT
        0x00a0:  494f 4e3a 2068 7474 703a 2f2f 3139 322e  ION:.http://192.
        0x00b0:  3136 382e 3439 2e31 3a38 3338 372f 7374  168.49.1:8387/st
        0x00c0:  6f72 6167 652f 656d 756c 6174 6564 2f30  orage/emulated/0
        0x00d0:  2f64 6174 612f 7573 6572 2f30 2f63 6f6d  /data/user/0/com
        0x00e0:  2e73 616d 7375 6e67 2e61 6e64 726f 6964  .samsung.android
        0x00f0:  2e61 6c6c 7368 6172 652e 7365 7276 6963  .allshare.servic
        0x0100:  652e 6669 6c65 7368 6172 652f 6669 6c65  e.fileshare/file
        0x0110:  732f 0d0a 4e54 3a20 7575 6964 3a36 3236  s/..NT:.uuid:626
        0x0120:  6636 6164 322d 6539 6339 2d34 6363 622d  f6ad2-e9c9-4ccb-
        0x0130:  6135 6566 2d33 3537 6630 3461 3561 3133  a5ef-357f04a5a13
        0x0140:  300d 0a4e 5453 3a20 7373 6470 3a61 6c69  0..NTS:.ssdp:ali
        0x0150:  7665 0d0a 5345 5256 4552 3a20 5348 502c  ve..SERVER:.SHP,
        0x0160:  2055 506e 502f 312e 302c 2053 616d 7375  .UPnP/1.0,.Samsu
        0x0170:  6e67 2055 506e 5020 5344 4b2f 312e 300d  ng.UPnP.SDK/1.0.
        0x0180:  0a55 534e 3a20 7575 6964 3a36 3236 6636  .USN:.uuid:626f6
        0x0190:  6164 322d 6539 6339 2d34 6363 622d 6135  ad2-e9c9-4ccb-a5
        0x01a0:  6566 2d33 3537 6630 3461 3561 3133 300d  ef-357f04a5a130.
        0x01b0:  0a0d 0a                                  ...
03:13:46.792334 IP (tos 0x0, ttl 1, id 7545, offset 0, flags [DF], proto UDP (17), length 421)
    192.168.49.1.4842 > 239.255.255.177.1900: [udp sum ok] UDP, length 393
        0x0000:  0100 5e7f ffb1 b272 bfdc 3230 0800 4500  ..^....r..20..E.
        0x0010:  01a5 1d79 4000 0111 7974 c0a8 3101 efff  ...y@...yt..1...
        0x0020:  ffb1 12ea 076c 0191 9a20 4e4f 5449 4659  .....l....NOTIFY
        0x0030:  202a 2048 5454 502f 312e 310d 0a48 4f53  .*.HTTP/1.1..HOS
        0x0040:  543a 2032 3339 2e32 3535 2e32 3535 2e31  T:.239.255.255.1
        0x0050:  3737 3a31 3930 300d 0a43 4143 4845 2d43  77:1900..CACHE-C
        0x0060:  4f4e 5452 4f4c 3a20 6d61 782d 6167 653d  ONTROL:.max-age=
        0x0070:  3138 3030 0d0a 4441 5445 3a20 5361 742c  1800..DATE:.Sat,
        0x0080:  2032 3820 4d61 7220 3230 3230 2030 333a  .28.Mar.2020.03:
        0x0090:  3133 3a34 3620 474d 540d 0a4c 4f43 4154  13:46.GMT..LOCAT
        0x00a0:  494f 4e3a 2068 7474 703a 2f2f 3139 322e  ION:.http://192.
        0x00b0:  3136 382e 3439 2e31 3a38 3338 372f 7374  168.49.1:8387/st
        0x00c0:  6f72 6167 652f 656d 756c 6174 6564 2f30  orage/emulated/0
        0x00d0:  2f64 6174 612f 7573 6572 2f30 2f63 6f6d  /data/user/0/com
        0x00e0:  2e73 616d 7375 6e67 2e61 6e64 726f 6964  .samsung.android
        0x00f0:  2e61 6c6c 7368 6172 652e 7365 7276 6963  .allshare.servic
        0x0100:  652e 6669 6c65 7368 6172 652f 6669 6c65  e.fileshare/file
        0x0110:  732f 0d0a 4e54 3a20 7575 6964 3a36 3236  s/..NT:.uuid:626
        0x0120:  6636 6164 322d 6539 6339 2d34 6363 622d  f6ad2-e9c9-4ccb-
        0x0130:  6135 6566 2d33 3537 6630 3461 3561 3133  a5ef-357f04a5a13
        0x0140:  300d 0a4e 5453 3a20 7373 6470 3a61 6c69  0..NTS:.ssdp:ali
        0x0150:  7665 0d0a 5345 5256 4552 3a20 5348 502c  ve..SERVER:.SHP,
        0x0160:  2055 506e 502f 312e 302c 2053 616d 7375  .UPnP/1.0,.Samsu
        0x0170:  6e67 2055 506e 5020 5344 4b2f 312e 300d  ng.UPnP.SDK/1.0.
        0x0180:  0a55 534e 3a20 7575 6964 3a36 3236 6636  .USN:.uuid:626f6
        0x0190:  6164 322d 6539 6339 2d34 6363 622d 6135  ad2-e9c9-4ccb-a5
        0x01a0:  6566 2d33 3537 6630 3461 3561 3133 300d  ef-357f04a5a130.
        0x01b0:  0a0d 0a                                  ...
03:13:46.793278 IP (tos 0x0, ttl 1, id 24883, offset 0, flags [DF], proto UDP (17), length 468)
    192.168.49.1.4842 > 239.255.255.250.1900: [udp sum ok] UDP, length 440
        0x0000:  0100 5e7f fffa b272 bfdc 3230 0800 4500  ..^....r..20..E.
        0x0010:  01d4 6133 4000 0111 3542 c0a8 3101 efff  ..a3@...5B..1...
        0x0020:  fffa 12ea 076c 01c0 2028 4e4f 5449 4659  .....l...(NOTIFY
        0x0030:  202a 2048 5454 502f 312e 310d 0a48 4f53  .*.HTTP/1.1..HOS
        0x0040:  543a 2032 3339 2e32 3535 2e32 3535 2e32  T:.239.255.255.2
        0x0050:  3530 3a31 3930 300d 0a43 4143 4845 2d43  50:1900..CACHE-C
        0x0060:  4f4e 5452 4f4c 3a20 6d61 782d 6167 653d  ONTROL:.max-age=
        0x0070:  3138 3030 0d0a 4441 5445 3a20 5361 742c  1800..DATE:.Sat,
        0x0080:  2032 3820 4d61 7220 3230 3230 2030 333a  .28.Mar.2020.03:
        0x0090:  3133 3a34 3620 474d 540d 0a4c 4f43 4154  13:46.GMT..LOCAT
        0x00a0:  494f 4e3a 2068 7474 703a 2f2f 3139 322e  ION:.http://192.
        0x00b0:  3136 382e 3439 2e31 3a38 3338 372f 7374  168.49.1:8387/st
        0x00c0:  6f72 6167 652f 656d 756c 6174 6564 2f30  orage/emulated/0
        0x00d0:  2f64 6174 612f 7573 6572 2f30 2f63 6f6d  /data/user/0/com
        0x00e0:  2e73 616d 7375 6e67 2e61 6e64 726f 6964  .samsung.android
        0x00f0:  2e61 6c6c 7368 6172 652e 7365 7276 6963  .allshare.servic
        0x0100:  652e 6669 6c65 7368 6172 652f 6669 6c65  e.fileshare/file
        0x0110:  732f 0d0a 4e54 3a20 7572 6e3a 7361 6d73  s/..NT:.urn:sams
        0x0120:  756e 672e 636f 6d3a 6465 7669 6365 3a46  ung.com:device:F
        0x0130:  696c 6554 7261 6e73 6665 7253 6572 7665  ileTransferServe
        0x0140:  723a 310d 0a4e 5453 3a20 7373 6470 3a61  r:1..NTS:.ssdp:a
        0x0150:  6c69 7665 0d0a 5345 5256 4552 3a20 5348  live..SERVER:.SH
        0x0160:  502c 2055 506e 502f 312e 302c 2053 616d  P,.UPnP/1.0,.Sam
        0x0170:  7375 6e67 2055 506e 5020 5344 4b2f 312e  sung.UPnP.SDK/1.
        0x0180:  300d 0a55 534e 3a20 7575 6964 3a36 3236  0..USN:.uuid:626
        0x0190:  6636 6164 322d 6539 6339 2d34 6363 622d  f6ad2-e9c9-4ccb-
        0x01a0:  6135 6566 2d33 3537 6630 3461 3561 3133  a5ef-357f04a5a13
        0x01b0:  303a 3a75 726e 3a73 616d 7375 6e67 2e63  0::urn:samsung.c
        0x01c0:  6f6d 3a64 6576 6963 653a 4669 6c65 5472  om:device:FileTr
        0x01d0:  616e 7366 6572 5365 7276 6572 3a31 0d0a  ansferServer:1..
        0x01e0:  0d0a                                     ..
03:13:46.798348 IP (tos 0x0, ttl 1, id 7546, offset 0, flags [DF], proto UDP (17), length 468)
    192.168.49.1.4842 > 239.255.255.177.1900: [udp sum ok] UDP, length 440
        0x0000:  0100 5e7f ffb1 b272 bfdc 3230 0800 4500  ..^....r..20..E.
        0x0010:  01d4 1d7a 4000 0111 7944 c0a8 3101 efff  ...z@...yD..1...
        0x0020:  ffb1 12ea 076c 01c0 1e6b 4e4f 5449 4659  .....l...kNOTIFY
        0x0030:  202a 2048 5454 502f 312e 310d 0a48 4f53  .*.HTTP/1.1..HOS
        0x0040:  543a 2032 3339 2e32 3535 2e32 3535 2e31  T:.239.255.255.1
        0x0050:  3737 3a31 3930 300d 0a43 4143 4845 2d43  77:1900..CACHE-C
        0x0060:  4f4e 5452 4f4c 3a20 6d61 782d 6167 653d  ONTROL:.max-age=
        0x0070:  3138 3030 0d0a 4441 5445 3a20 5361 742c  1800..DATE:.Sat,
        0x0080:  2032 3820 4d61 7220 3230 3230 2030 333a  .28.Mar.2020.03:
        0x0090:  3133 3a34 3620 474d 540d 0a4c 4f43 4154  13:46.GMT..LOCAT
        0x00a0:  494f 4e3a 2068 7474 703a 2f2f 3139 322e  ION:.http://192.
        0x00b0:  3136 382e 3439 2e31 3a38 3338 372f 7374  168.49.1:8387/st
        0x00c0:  6f72 6167 652f 656d 756c 6174 6564 2f30  orage/emulated/0
        0x00d0:  2f64 6174 612f 7573 6572 2f30 2f63 6f6d  /data/user/0/com
        0x00e0:  2e73 616d 7375 6e67 2e61 6e64 726f 6964  .samsung.android
        0x00f0:  2e61 6c6c 7368 6172 652e 7365 7276 6963  .allshare.servic
        0x0100:  652e 6669 6c65 7368 6172 652f 6669 6c65  e.fileshare/file
        0x0110:  732f 0d0a 4e54 3a20 7572 6e3a 7361 6d73  s/..NT:.urn:sams
        0x0120:  756e 672e 636f 6d3a 6465 7669 6365 3a46  ung.com:device:F
        0x0130:  696c 6554 7261 6e73 6665 7253 6572 7665  ileTransferServe
        0x0140:  723a 310d 0a4e 5453 3a20 7373 6470 3a61  r:1..NTS:.ssdp:a
        0x0150:  6c69 7665 0d0a 5345 5256 4552 3a20 5348  live..SERVER:.SH
        0x0160:  502c 2055 506e 502f 312e 302c 2053 616d  P,.UPnP/1.0,.Sam
        0x0170:  7375 6e67 2055 506e 5020 5344 4b2f 312e  sung.UPnP.SDK/1.
        0x0180:  300d 0a55 534e 3a20 7575 6964 3a36 3236  0..USN:.uuid:626
        0x0190:  6636 6164 322d 6539 6339 2d34 6363 622d  f6ad2-e9c9-4ccb-
        0x01a0:  6135 6566 2d33 3537 6630 3461 3561 3133  a5ef-357f04a5a13
        0x01b0:  303a 3a75 726e 3a73 616d 7375 6e67 2e63  0::urn:samsung.c
        0x01c0:  6f6d 3a64 6576 6963 653a 4669 6c65 5472  om:device:FileTr
        0x01d0:  616e 7366 6572 5365 7276 6572 3a31 0d0a  ansferServer:1..
        0x01e0:  0d0a                                     ..
03:13:46.799530 IP (tos 0x0, ttl 1, id 24884, offset 0, flags [DF], proto UDP (17), length 460)
    192.168.49.1.4842 > 239.255.255.250.1900: [udp sum ok] UDP, length 432
        0x0000:  0100 5e7f fffa b272 bfdc 3230 0800 4500  ..^....r..20..E.
        0x0010:  01cc 6134 4000 0111 3549 c0a8 3101 efff  ..a4@...5I..1...
        0x0020:  fffa 12ea 076c 01b8 8fa7 4e4f 5449 4659  .....l....NOTIFY
        0x0030:  202a 2048 5454 502f 312e 310d 0a48 4f53  .*.HTTP/1.1..HOS
        0x0040:  543a 2032 3339 2e32 3535 2e32 3535 2e32  T:.239.255.255.2
        0x0050:  3530 3a31 3930 300d 0a43 4143 4845 2d43  50:1900..CACHE-C
        0x0060:  4f4e 5452 4f4c 3a20 6d61 782d 6167 653d  ONTROL:.max-age=
        0x0070:  3138 3030 0d0a 4441 5445 3a20 5361 742c  1800..DATE:.Sat,
        0x0080:  2032 3820 4d61 7220 3230 3230 2030 333a  .28.Mar.2020.03:
        0x0090:  3133 3a34 3620 474d 540d 0a4c 4f43 4154  13:46.GMT..LOCAT
        0x00a0:  494f 4e3a 2068 7474 703a 2f2f 3139 322e  ION:.http://192.
        0x00b0:  3136 382e 3439 2e31 3a38 3338 372f 7374  168.49.1:8387/st
        0x00c0:  6f72 6167 652f 656d 756c 6174 6564 2f30  orage/emulated/0
        0x00d0:  2f64 6174 612f 7573 6572 2f30 2f63 6f6d  /data/user/0/com
        0x00e0:  2e73 616d 7375 6e67 2e61 6e64 726f 6964  .samsung.android
        0x00f0:  2e61 6c6c 7368 6172 652e 7365 7276 6963  .allshare.servic
        0x0100:  652e 6669 6c65 7368 6172 652f 6669 6c65  e.fileshare/file
        0x0110:  732f 0d0a 4e54 3a20 7572 6e3a 7361 6d73  s/..NT:.urn:sams
        0x0120:  756e 672e 636f 6d3a 7365 7276 6963 653a  ung.com:service:
        0x0130:  4669 6c65 5472 616e 7370 6f72 743a 310d  FileTransport:1.
        0x0140:  0a4e 5453 3a20 7373 6470 3a61 6c69 7665  .NTS:.ssdp:alive
        0x0150:  0d0a 5345 5256 4552 3a20 5348 502c 2055  ..SERVER:.SHP,.U
        0x0160:  506e 502f 312e 302c 2053 616d 7375 6e67  PnP/1.0,.Samsung
        0x0170:  2055 506e 5020 5344 4b2f 312e 300d 0a55  .UPnP.SDK/1.0..U
        0x0180:  534e 3a20 7575 6964 3a36 3236 6636 6164  SN:.uuid:626f6ad
        0x0190:  322d 6539 6339 2d34 6363 622d 6135 6566  2-e9c9-4ccb-a5ef
        0x01a0:  2d33 3537 6630 3461 3561 3133 303a 3a75  -357f04a5a130::u
        0x01b0:  726e 3a73 616d 7375 6e67 2e63 6f6d 3a73  rn:samsung.com:s
        0x01c0:  6572 7669 6365 3a46 696c 6554 7261 6e73  ervice:FileTrans
        0x01d0:  706f 7274 3a31 0d0a 0d0a                 port:1....
03:13:46.801275 IP (tos 0x0, ttl 1, id 7547, offset 0, flags [DF], proto UDP (17), length 460)
    192.168.49.1.4842 > 239.255.255.177.1900: [udp sum ok] UDP, length 432
        0x0000:  0100 5e7f ffb1 b272 bfdc 3230 0800 4500  ..^....r..20..E.
        0x0010:  01cc 1d7b 4000 0111 794b c0a8 3101 efff  ...{@...yK..1...
        0x0020:  ffb1 12ea 076c 01b8 8dea 4e4f 5449 4659  .....l....NOTIFY
        0x0030:  202a 2048 5454 502f 312e 310d 0a48 4f53  .*.HTTP/1.1..HOS
        0x0040:  543a 2032 3339 2e32 3535 2e32 3535 2e31  T:.239.255.255.1
        0x0050:  3737 3a31 3930 300d 0a43 4143 4845 2d43  77:1900..CACHE-C
        0x0060:  4f4e 5452 4f4c 3a20 6d61 782d 6167 653d  ONTROL:.max-age=
        0x0070:  3138 3030 0d0a 4441 5445 3a20 5361 742c  1800..DATE:.Sat,
        0x0080:  2032 3820 4d61 7220 3230 3230 2030 333a  .28.Mar.2020.03:
        0x0090:  3133 3a34 3620 474d 540d 0a4c 4f43 4154  13:46.GMT..LOCAT
        0x00a0:  494f 4e3a 2068 7474 703a 2f2f 3139 322e  ION:.http://192.
        0x00b0:  3136 382e 3439 2e31 3a38 3338 372f 7374  168.49.1:8387/st
        0x00c0:  6f72 6167 652f 656d 756c 6174 6564 2f30  orage/emulated/0
        0x00d0:  2f64 6174 612f 7573 6572 2f30 2f63 6f6d  /data/user/0/com
        0x00e0:  2e73 616d 7375 6e67 2e61 6e64 726f 6964  .samsung.android
        0x00f0:  2e61 6c6c 7368 6172 652e 7365 7276 6963  .allshare.servic
        0x0100:  652e 6669 6c65 7368 6172 652f 6669 6c65  e.fileshare/file
        0x0110:  732f 0d0a 4e54 3a20 7572 6e3a 7361 6d73  s/..NT:.urn:sams
        0x0120:  756e 672e 636f 6d3a 7365 7276 6963 653a  ung.com:service:
        0x0130:  4669 6c65 5472 616e 7370 6f72 743a 310d  FileTransport:1.
        0x0140:  0a4e 5453 3a20 7373 6470 3a61 6c69 7665  .NTS:.ssdp:alive
        0x0150:  0d0a 5345 5256 4552 3a20 5348 502c 2055  ..SERVER:.SHP,.U
        0x0160:  506e 502f 312e 302c 2053 616d 7375 6e67  PnP/1.0,.Samsung
        0x0170:  2055 506e 5020 5344 4b2f 312e 300d 0a55  .UPnP.SDK/1.0..U
        0x0180:  534e 3a20 7575 6964 3a36 3236 6636 6164  SN:.uuid:626f6ad
        0x0190:  322d 6539 6339 2d34 6363 622d 6135 6566  2-e9c9-4ccb-a5ef
        0x01a0:  2d33 3537 6630 3461 3561 3133 303a 3a75  -357f04a5a130::u
        0x01b0:  726e 3a73 616d 7375 6e67 2e63 6f6d 3a73  rn:samsung.com:s
        0x01c0:  6572 7669 6365 3a46 696c 6554 7261 6e73  ervice:FileTrans
        0x01d0:  706f 7274 3a31 0d0a 0d0a                 port:1....
03:13:46.828862 IP (tos 0x0, ttl 64, id 0, offset 0, flags [none], proto UDP (17), length 328)
    0.0.0.0.68 > 255.255.255.255.67: [udp sum ok] BOOTP/DHCP, Request from 38:1d:d9:41:db:ff (oui Unknown), length 300, xid 0x3ca60e72, Flags [none] (0x0000)
          Client-Ethernet-Address 38:1d:d9:41:db:ff (oui Unknown)
          Vendor-rfc1048 Extensions
            Magic Cookie 0x63825363
            DHCP-Message Option 53, length 1: Discover
            Client-ID Option 61, length 7: ether 38:1d:d9:41:db:ff
            Vendor-Class Option 60, length 12: "udhcp 1.15.1"
            MSZ Option 57, length 2: 576
            Parameter-Request Option 55, length 7:
              Subnet-Mask, Default-Gateway, Domain-Name-Server, Hostname
              Domain-Name, BR, NTP
        0x0000:  ffff ffff ffff 381d d941 dbff 0800 4500  ......8..A....E.
        0x0010:  0148 0000 0000 4011 79a6 0000 0000 ffff  .H....@.y.......
        0x0020:  ffff 0044 0043 0134 0e07 0101 0600 3ca6  ...D.C.4......<.
        0x0030:  0e72 0000 0000 0000 0000 0000 0000 0000  .r..............
        0x0040:  0000 0000 0000 381d d941 dbff 0000 0000  ......8..A......
        0x0050:  0000 0000 0000 0000 0000 0000 0000 0000  ................
        0x0060:  0000 0000 0000 0000 0000 0000 0000 0000  ................
        0x0070:  0000 0000 0000 0000 0000 0000 0000 0000  ................
        0x0080:  0000 0000 0000 0000 0000 0000 0000 0000  ................
        0x0090:  0000 0000 0000 0000 0000 0000 0000 0000  ................
        0x00a0:  0000 0000 0000 0000 0000 0000 0000 0000  ................
        0x00b0:  0000 0000 0000 0000 0000 0000 0000 0000  ................
        0x00c0:  0000 0000 0000 0000 0000 0000 0000 0000  ................
        0x00d0:  0000 0000 0000 0000 0000 0000 0000 0000  ................
        0x00e0:  0000 0000 0000 0000 0000 0000 0000 0000  ................
        0x00f0:  0000 0000 0000 0000 0000 0000 0000 0000  ................
        0x0100:  0000 0000 0000 0000 0000 0000 0000 0000  ................
        0x0110:  0000 0000 0000 6382 5363 3501 013d 0701  ......c.Sc5..=..
        0x0120:  381d d941 dbff 3c0c 7564 6863 7020 312e  8..A..<.udhcp.1.
        0x0130:  3135 2e31 3902 0240 3707 0103 060c 0f1c  15.19..@7.......
        0x0140:  2aff 0000 0000 0000 0000 0000 0000 0000  *...............
        0x0150:  0000 0000 0000 7542 3b96 e7d4 a84f 0000  ......uB;....O..
03:13:46.830981 IP (tos 0x0, ttl 64, id 10091, offset 0, flags [none], proto UDP (17), length 337)
    192.168.49.1.67 > 192.168.49.143.68: [udp sum ok] BOOTP/DHCP, Reply, length 309, xid 0x3ca60e72, Flags [none] (0x0000)
          Your-IP 192.168.49.143
          Server-IP 192.168.49.1
          Client-Ethernet-Address 38:1d:d9:41:db:ff (oui Unknown)
          Vendor-rfc1048 Extensions
            Magic Cookie 0x63825363
            DHCP-Message Option 53, length 1: Offer
            Server-ID Option 54, length 4: 192.168.49.1
            Lease-Time Option 51, length 4: 3600
            RN Option 58, length 4: 1800
            RB Option 59, length 4: 3150
            Subnet-Mask Option 1, length 4: 255.255.255.0
            BR Option 28, length 4: 192.168.49.255
            Default-Gateway Option 3, length 4: 192.168.49.1
            Domain-Name-Server Option 6, length 4: 192.168.49.1
            Vendor-Option Option 43, length 15: 65.78.68.82.79.73.68.95.77.69.84.69.82.69.68
        0x0000:  381d d941 dbff b272 bfdc 3230 0800 4500  8..A...r..20..E.
        0x0010:  0151 276b 0000 4011 6e50 c0a8 3101 c0a8  .Q'k..@.nP..1...
        0x0020:  318f 0043 0044 013d b161 0201 0600 3ca6  1..C.D.=.a....<.
        0x0030:  0e72 0000 0000 0000 0000 c0a8 318f c0a8  .r..........1...
        0x0040:  3101 0000 0000 381d d941 dbff 0000 0000  1.....8..A......
        0x0050:  0000 0000 0000 0000 0000 0000 0000 0000  ................
        0x0060:  0000 0000 0000 0000 0000 0000 0000 0000  ................
        0x0070:  0000 0000 0000 0000 0000 0000 0000 0000  ................
        0x0080:  0000 0000 0000 0000 0000 0000 0000 0000  ................
        0x0090:  0000 0000 0000 0000 0000 0000 0000 0000  ................
        0x00a0:  0000 0000 0000 0000 0000 0000 0000 0000  ................
        0x00b0:  0000 0000 0000 0000 0000 0000 0000 0000  ................
        0x00c0:  0000 0000 0000 0000 0000 0000 0000 0000  ................
        0x00d0:  0000 0000 0000 0000 0000 0000 0000 0000  ................
        0x00e0:  0000 0000 0000 0000 0000 0000 0000 0000  ................
        0x00f0:  0000 0000 0000 0000 0000 0000 0000 0000  ................
        0x0100:  0000 0000 0000 0000 0000 0000 0000 0000  ................
        0x0110:  0000 0000 0000 6382 5363 3501 0236 04c0  ......c.Sc5..6..
        0x0120:  a831 0133 0400 000e 103a 0400 0007 083b  .1.3.....:.....;
        0x0130:  0400 000c 4e01 04ff ffff 001c 04c0 a831  ....N..........1
        0x0140:  ff03 04c0 a831 0106 04c0 a831 012b 0f41  .....1.....1.+.A
        0x0150:  4e44 524f 4944 5f4d 4554 4552 4544 ff    NDROID_METERED.
03:13:46.855752 IP (tos 0x0, ttl 64, id 0, offset 0, flags [none], proto UDP (17), length 328)
    0.0.0.0.68 > 255.255.255.255.67: [udp sum ok] BOOTP/DHCP, Request from 38:1d:d9:41:db:ff (oui Unknown), length 300, xid 0x3ca60e72, Flags [none] (0x0000)
          Client-Ethernet-Address 38:1d:d9:41:db:ff (oui Unknown)
          Vendor-rfc1048 Extensions
            Magic Cookie 0x63825363
            DHCP-Message Option 53, length 1: Request
            Client-ID Option 61, length 7: ether 38:1d:d9:41:db:ff
            Vendor-Class Option 60, length 12: "udhcp 1.15.1"
            Requested-IP Option 50, length 4: 192.168.49.143
            Server-ID Option 54, length 4: 192.168.49.1
            Parameter-Request Option 55, length 7:
              Subnet-Mask, Default-Gateway, Domain-Name-Server, Hostname
              Domain-Name, BR, NTP
        0x0000:  ffff ffff ffff 381d d941 dbff 0800 4500  ......8..A....E.
        0x0010:  0148 0000 0000 4011 79a6 0000 0000 ffff  .H....@.y.......
        0x0020:  ffff 0044 0043 0134 fb5e 0101 0600 3ca6  ...D.C.4.^....<.
        0x0030:  0e72 0000 0000 0000 0000 0000 0000 0000  .r..............
        0x0040:  0000 0000 0000 381d d941 dbff 0000 0000  ......8..A......
        0x0050:  0000 0000 0000 0000 0000 0000 0000 0000  ................
        0x0060:  0000 0000 0000 0000 0000 0000 0000 0000  ................
        0x0070:  0000 0000 0000 0000 0000 0000 0000 0000  ................
        0x0080:  0000 0000 0000 0000 0000 0000 0000 0000  ................
        0x0090:  0000 0000 0000 0000 0000 0000 0000 0000  ................
        0x00a0:  0000 0000 0000 0000 0000 0000 0000 0000  ................
        0x00b0:  0000 0000 0000 0000 0000 0000 0000 0000  ................
        0x00c0:  0000 0000 0000 0000 0000 0000 0000 0000  ................
        0x00d0:  0000 0000 0000 0000 0000 0000 0000 0000  ................
        0x00e0:  0000 0000 0000 0000 0000 0000 0000 0000  ................
        0x00f0:  0000 0000 0000 0000 0000 0000 0000 0000  ................
        0x0100:  0000 0000 0000 0000 0000 0000 0000 0000  ................
        0x0110:  0000 0000 0000 6382 5363 3501 033d 0701  ......c.Sc5..=..
        0x0120:  381d d941 dbff 3c0c 7564 6863 7020 312e  8..A..<.udhcp.1.
        0x0130:  3135 2e31 3204 c0a8 318f 3604 c0a8 3101  15.12...1.6...1.
        0x0140:  3707 0103 060c 0f1c 2aff 0000 0000 0000  7.......*.......
        0x0150:  0000 0000 0000 f8f8 5476 66ad bf42 0000  ........Tvf..B..
03:13:46.959812 IP (tos 0x0, ttl 64, id 10100, offset 0, flags [none], proto UDP (17), length 337)
    192.168.49.1.67 > 192.168.49.143.68: [udp sum ok] BOOTP/DHCP, Reply, length 309, xid 0x3ca60e72, Flags [none] (0x0000)
          Your-IP 192.168.49.143
          Server-IP 192.168.49.1
          Client-Ethernet-Address 38:1d:d9:41:db:ff (oui Unknown)
          Vendor-rfc1048 Extensions
            Magic Cookie 0x63825363
            DHCP-Message Option 53, length 1: ACK
            Server-ID Option 54, length 4: 192.168.49.1
            Lease-Time Option 51, length 4: 3600
            RN Option 58, length 4: 1800
            RB Option 59, length 4: 3150
            Subnet-Mask Option 1, length 4: 255.255.255.0
            BR Option 28, length 4: 192.168.49.255
            Default-Gateway Option 3, length 4: 192.168.49.1
            Domain-Name-Server Option 6, length 4: 192.168.49.1
            Vendor-Option Option 43, length 15: 65.78.68.82.79.73.68.95.77.69.84.69.82.69.68
        0x0000:  381d d941 dbff b272 bfdc 3230 0800 4500  8..A...r..20..E.
        0x0010:  0151 2774 0000 4011 6e47 c0a8 3101 c0a8  .Q't..@.nG..1...
        0x0020:  318f 0043 0044 013d ae61 0201 0600 3ca6  1..C.D.=.a....<.
        0x0030:  0e72 0000 0000 0000 0000 c0a8 318f c0a8  .r..........1...
        0x0040:  3101 0000 0000 381d d941 dbff 0000 0000  1.....8..A......
        0x0050:  0000 0000 0000 0000 0000 0000 0000 0000  ................
        0x0060:  0000 0000 0000 0000 0000 0000 0000 0000  ................
        0x0070:  0000 0000 0000 0000 0000 0000 0000 0000  ................
        0x0080:  0000 0000 0000 0000 0000 0000 0000 0000  ................
        0x0090:  0000 0000 0000 0000 0000 0000 0000 0000  ................
        0x00a0:  0000 0000 0000 0000 0000 0000 0000 0000  ................
        0x00b0:  0000 0000 0000 0000 0000 0000 0000 0000  ................
        0x00c0:  0000 0000 0000 0000 0000 0000 0000 0000  ................
        0x00d0:  0000 0000 0000 0000 0000 0000 0000 0000  ................
        0x00e0:  0000 0000 0000 0000 0000 0000 0000 0000  ................
        0x00f0:  0000 0000 0000 0000 0000 0000 0000 0000  ................
        0x0100:  0000 0000 0000 0000 0000 0000 0000 0000  ................
        0x0110:  0000 0000 0000 6382 5363 3501 0536 04c0  ......c.Sc5..6..
        0x0120:  a831 0133 0400 000e 103a 0400 0007 083b  .1.3.....:.....;
        0x0130:  0400 000c 4e01 04ff ffff 001c 04c0 a831  ....N..........1
        0x0140:  ff03 04c0 a831 0106 04c0 a831 012b 0f41  .....1.....1.+.A
        0x0150:  4e44 524f 4944 5f4d 4554 4552 4544 ff    NDROID_METERED.
03:13:47.011256 IP (tos 0x0, ttl 1, id 24894, offset 0, flags [DF], proto UDP (17), length 412)
    192.168.49.1.4842 > 239.255.255.250.1900: [udp sum ok] UDP, length 384
        0x0000:  0100 5e7f fffa b272 bfdc 3230 0800 4500  ..^....r..20..E.
        0x0010:  019c 613e 4000 0111 356f c0a8 3101 efff  ..a>@...5o..1...
        0x0020:  fffa 12ea 076c 0188 7df6 4e4f 5449 4659  .....l..}.NOTIFY
        0x0030:  202a 2048 5454 502f 312e 310d 0a48 4f53  .*.HTTP/1.1..HOS
        0x0040:  543a 2032 3339 2e32 3535 2e32 3535 2e32  T:.239.255.255.2
        0x0050:  3530 3a31 3930 300d 0a43 4143 4845 2d43  50:1900..CACHE-C
        0x0060:  4f4e 5452 4f4c 3a20 6d61 782d 6167 653d  ONTROL:.max-age=
        0x0070:  3138 3030 0d0a 4441 5445 3a20 5361 742c  1800..DATE:.Sat,
        0x0080:  2032 3820 4d61 7220 3230 3230 2030 333a  .28.Mar.2020.03:
        0x0090:  3133 3a34 3720 474d 540d 0a4c 4f43 4154  13:47.GMT..LOCAT
        0x00a0:  494f 4e3a 2068 7474 703a 2f2f 3139 322e  ION:.http://192.
        0x00b0:  3136 382e 3439 2e31 3a38 3338 372f 7374  168.49.1:8387/st
        0x00c0:  6f72 6167 652f 656d 756c 6174 6564 2f30  orage/emulated/0
        0x00d0:  2f64 6174 612f 7573 6572 2f30 2f63 6f6d  /data/user/0/com
        0x00e0:  2e73 616d 7375 6e67 2e61 6e64 726f 6964  .samsung.android
        0x00f0:  2e61 6c6c 7368 6172 652e 7365 7276 6963  .allshare.servic
        0x0100:  652e 6669 6c65 7368 6172 652f 6669 6c65  e.fileshare/file
        0x0110:  732f 0d0a 4e54 3a20 7570 6e70 3a72 6f6f  s/..NT:.upnp:roo
        0x0120:  7464 6576 6963 650d 0a4e 5453 3a20 7373  tdevice..NTS:.ss
        0x0130:  6470 3a61 6c69 7665 0d0a 5345 5256 4552  dp:alive..SERVER
        0x0140:  3a20 5348 502c 2055 506e 502f 312e 302c  :.SHP,.UPnP/1.0,
        0x0150:  2053 616d 7375 6e67 2055 506e 5020 5344  .Samsung.UPnP.SD
        0x0160:  4b2f 312e 300d 0a55 534e 3a20 7575 6964  K/1.0..USN:.uuid
        0x0170:  3a36 3236 6636 6164 322d 6539 6339 2d34  :626f6ad2-e9c9-4
        0x0180:  6363 622d 6135 6566 2d33 3537 6630 3461  ccb-a5ef-357f04a
        0x0190:  3561 3133 303a 3a75 706e 703a 726f 6f74  5a130::upnp:root
        0x01a0:  6465 7669 6365 0d0a 0d0a                 device....
03:13:47.017149 IP (tos 0x0, ttl 1, id 7565, offset 0, flags [DF], proto UDP (17), length 412)
    192.168.49.1.4842 > 239.255.255.177.1900: [udp sum ok] UDP, length 384
        0x0000:  0100 5e7f ffb1 b272 bfdc 3230 0800 4500  ..^....r..20..E.
        0x0010:  019c 1d8d 4000 0111 7969 c0a8 3101 efff  ....@...yi..1...
        0x0020:  ffb1 12ea 076c 0188 7c39 4e4f 5449 4659  .....l..|9NOTIFY
        0x0030:  202a 2048 5454 502f 312e 310d 0a48 4f53  .*.HTTP/1.1..HOS
        0x0040:  543a 2032 3339 2e32 3535 2e32 3535 2e31  T:.239.255.255.1
        0x0050:  3737 3a31 3930 300d 0a43 4143 4845 2d43  77:1900..CACHE-C
        0x0060:  4f4e 5452 4f4c 3a20 6d61 782d 6167 653d  ONTROL:.max-age=
        0x0070:  3138 3030 0d0a 4441 5445 3a20 5361 742c  1800..DATE:.Sat,
        0x0080:  2032 3820 4d61 7220 3230 3230 2030 333a  .28.Mar.2020.03:
        0x0090:  3133 3a34 3720 474d 540d 0a4c 4f43 4154  13:47.GMT..LOCAT
        0x00a0:  494f 4e3a 2068 7474 703a 2f2f 3139 322e  ION:.http://192.
        0x00b0:  3136 382e 3439 2e31 3a38 3338 372f 7374  168.49.1:8387/st
        0x00c0:  6f72 6167 652f 656d 756c 6174 6564 2f30  orage/emulated/0
        0x00d0:  2f64 6174 612f 7573 6572 2f30 2f63 6f6d  /data/user/0/com
        0x00e0:  2e73 616d 7375 6e67 2e61 6e64 726f 6964  .samsung.android
        0x00f0:  2e61 6c6c 7368 6172 652e 7365 7276 6963  .allshare.servic
        0x0100:  652e 6669 6c65 7368 6172 652f 6669 6c65  e.fileshare/file
        0x0110:  732f 0d0a 4e54 3a20 7570 6e70 3a72 6f6f  s/..NT:.upnp:roo
        0x0120:  7464 6576 6963 650d 0a4e 5453 3a20 7373  tdevice..NTS:.ss
        0x0130:  6470 3a61 6c69 7665 0d0a 5345 5256 4552  dp:alive..SERVER
        0x0140:  3a20 5348 502c 2055 506e 502f 312e 302c  :.SHP,.UPnP/1.0,
        0x0150:  2053 616d 7375 6e67 2055 506e 5020 5344  .Samsung.UPnP.SD
        0x0160:  4b2f 312e 300d 0a55 534e 3a20 7575 6964  K/1.0..USN:.uuid
        0x0170:  3a36 3236 6636 6164 322d 6539 6339 2d34  :626f6ad2-e9c9-4
        0x0180:  6363 622d 6135 6566 2d33 3537 6630 3461  ccb-a5ef-357f04a
        0x0190:  3561 3133 303a 3a75 706e 703a 726f 6f74  5a130::upnp:root
        0x01a0:  6465 7669 6365 0d0a 0d0a                 device....
03:13:47.022651 IP (tos 0x0, ttl 1, id 24895, offset 0, flags [DF], proto UDP (17), length 421)
    192.168.49.1.4842 > 239.255.255.250.1900: [udp sum ok] UDP, length 393
        0x0000:  0100 5e7f fffa b272 bfdc 3230 0800 4500  ..^....r..20..E.
        0x0010:  01a5 613f 4000 0111 3565 c0a8 3101 efff  ..a?@...5e..1...
        0x0020:  fffa 12ea 076c 0191 9add 4e4f 5449 4659  .....l....NOTIFY
        0x0030:  202a 2048 5454 502f 312e 310d 0a48 4f53  .*.HTTP/1.1..HOS
        0x0040:  543a 2032 3339 2e32 3535 2e32 3535 2e32  T:.239.255.255.2
        0x0050:  3530 3a31 3930 300d 0a43 4143 4845 2d43  50:1900..CACHE-C
        0x0060:  4f4e 5452 4f4c 3a20 6d61 782d 6167 653d  ONTROL:.max-age=
        0x0070:  3138 3030 0d0a 4441 5445 3a20 5361 742c  1800..DATE:.Sat,
        0x0080:  2032 3820 4d61 7220 3230 3230 2030 333a  .28.Mar.2020.03:
        0x0090:  3133 3a34 3720 474d 540d 0a4c 4f43 4154  13:47.GMT..LOCAT
        0x00a0:  494f 4e3a 2068 7474 703a 2f2f 3139 322e  ION:.http://192.
        0x00b0:  3136 382e 3439 2e31 3a38 3338 372f 7374  168.49.1:8387/st
        0x00c0:  6f72 6167 652f 656d 756c 6174 6564 2f30  orage/emulated/0
        0x00d0:  2f64 6174 612f 7573 6572 2f30 2f63 6f6d  /data/user/0/com
        0x00e0:  2e73 616d 7375 6e67 2e61 6e64 726f 6964  .samsung.android
        0x00f0:  2e61 6c6c 7368 6172 652e 7365 7276 6963  .allshare.servic
        0x0100:  652e 6669 6c65 7368 6172 652f 6669 6c65  e.fileshare/file
        0x0110:  732f 0d0a 4e54 3a20 7575 6964 3a36 3236  s/..NT:.uuid:626
        0x0120:  6636 6164 322d 6539 6339 2d34 6363 622d  f6ad2-e9c9-4ccb-
        0x0130:  6135 6566 2d33 3537 6630 3461 3561 3133  a5ef-357f04a5a13
        0x0140:  300d 0a4e 5453 3a20 7373 6470 3a61 6c69  0..NTS:.ssdp:ali
        0x0150:  7665 0d0a 5345 5256 4552 3a20 5348 502c  ve..SERVER:.SHP,
        0x0160:  2055 506e 502f 312e 302c 2053 616d 7375  .UPnP/1.0,.Samsu
        0x0170:  6e67 2055 506e 5020 5344 4b2f 312e 300d  ng.UPnP.SDK/1.0.
        0x0180:  0a55 534e 3a20 7575 6964 3a36 3236 6636  .USN:.uuid:626f6
        0x0190:  6164 322d 6539 6339 2d34 6363 622d 6135  ad2-e9c9-4ccb-a5
        0x01a0:  6566 2d33 3537 6630 3461 3561 3133 300d  ef-357f04a5a130.
        0x01b0:  0a0d 0a                                  ...
03:13:47.026891 IP (tos 0x0, ttl 1, id 7566, offset 0, flags [DF], proto UDP (17), length 421)
    192.168.49.1.4842 > 239.255.255.177.1900: [udp sum ok] UDP, length 393
        0x0000:  0100 5e7f ffb1 b272 bfdc 3230 0800 4500  ..^....r..20..E.
        0x0010:  01a5 1d8e 4000 0111 795f c0a8 3101 efff  ....@...y_..1...
        0x0020:  ffb1 12ea 076c 0191 9920 4e4f 5449 4659  .....l....NOTIFY
        0x0030:  202a 2048 5454 502f 312e 310d 0a48 4f53  .*.HTTP/1.1..HOS
        0x0040:  543a 2032 3339 2e32 3535 2e32 3535 2e31  T:.239.255.255.1
        0x0050:  3737 3a31 3930 300d 0a43 4143 4845 2d43  77:1900..CACHE-C
        0x0060:  4f4e 5452 4f4c 3a20 6d61 782d 6167 653d  ONTROL:.max-age=
        0x0070:  3138 3030 0d0a 4441 5445 3a20 5361 742c  1800..DATE:.Sat,
        0x0080:  2032 3820 4d61 7220 3230 3230 2030 333a  .28.Mar.2020.03:
        0x0090:  3133 3a34 3720 474d 540d 0a4c 4f43 4154  13:47.GMT..LOCAT
        0x00a0:  494f 4e3a 2068 7474 703a 2f2f 3139 322e  ION:.http://192.
        0x00b0:  3136 382e 3439 2e31 3a38 3338 372f 7374  168.49.1:8387/st
        0x00c0:  6f72 6167 652f 656d 756c 6174 6564 2f30  orage/emulated/0
        0x00d0:  2f64 6174 612f 7573 6572 2f30 2f63 6f6d  /data/user/0/com
        0x00e0:  2e73 616d 7375 6e67 2e61 6e64 726f 6964  .samsung.android
        0x00f0:  2e61 6c6c 7368 6172 652e 7365 7276 6963  .allshare.servic
        0x0100:  652e 6669 6c65 7368 6172 652f 6669 6c65  e.fileshare/file
        0x0110:  732f 0d0a 4e54 3a20 7575 6964 3a36 3236  s/..NT:.uuid:626
        0x0120:  6636 6164 322d 6539 6339 2d34 6363 622d  f6ad2-e9c9-4ccb-
        0x0130:  6135 6566 2d33 3537 6630 3461 3561 3133  a5ef-357f04a5a13
        0x0140:  300d 0a4e 5453 3a20 7373 6470 3a61 6c69  0..NTS:.ssdp:ali
        0x0150:  7665 0d0a 5345 5256 4552 3a20 5348 502c  ve..SERVER:.SHP,
        0x0160:  2055 506e 502f 312e 302c 2053 616d 7375  .UPnP/1.0,.Samsu
        0x0170:  6e67 2055 506e 5020 5344 4b2f 312e 300d  ng.UPnP.SDK/1.0.
        0x0180:  0a55 534e 3a20 7575 6964 3a36 3236 6636  .USN:.uuid:626f6
        0x0190:  6164 322d 6539 6339 2d34 6363 622d 6135  ad2-e9c9-4ccb-a5
        0x01a0:  6566 2d33 3537 6630 3461 3561 3133 300d  ef-357f04a5a130.
        0x01b0:  0a0d 0a                                  ...
03:13:47.029284 IP (tos 0x0, ttl 1, id 24896, offset 0, flags [DF], proto UDP (17), length 468)
    192.168.49.1.4842 > 239.255.255.250.1900: [udp sum ok] UDP, length 440
        0x0000:  0100 5e7f fffa b272 bfdc 3230 0800 4500  ..^....r..20..E.
        0x0010:  01d4 6140 4000 0111 3535 c0a8 3101 efff  ..a@@...55..1...
        0x0020:  fffa 12ea 076c 01c0 1f28 4e4f 5449 4659  .....l...(NOTIFY
        0x0030:  202a 2048 5454 502f 312e 310d 0a48 4f53  .*.HTTP/1.1..HOS
        0x0040:  543a 2032 3339 2e32 3535 2e32 3535 2e32  T:.239.255.255.2
        0x0050:  3530 3a31 3930 300d 0a43 4143 4845 2d43  50:1900..CACHE-C
        0x0060:  4f4e 5452 4f4c 3a20 6d61 782d 6167 653d  ONTROL:.max-age=
        0x0070:  3138 3030 0d0a 4441 5445 3a20 5361 742c  1800..DATE:.Sat,
        0x0080:  2032 3820 4d61 7220 3230 3230 2030 333a  .28.Mar.2020.03:
        0x0090:  3133 3a34 3720 474d 540d 0a4c 4f43 4154  13:47.GMT..LOCAT
        0x00a0:  494f 4e3a 2068 7474 703a 2f2f 3139 322e  ION:.http://192.
        0x00b0:  3136 382e 3439 2e31 3a38 3338 372f 7374  168.49.1:8387/st
        0x00c0:  6f72 6167 652f 656d 756c 6174 6564 2f30  orage/emulated/0
        0x00d0:  2f64 6174 612f 7573 6572 2f30 2f63 6f6d  /data/user/0/com
        0x00e0:  2e73 616d 7375 6e67 2e61 6e64 726f 6964  .samsung.android
        0x00f0:  2e61 6c6c 7368 6172 652e 7365 7276 6963  .allshare.servic
        0x0100:  652e 6669 6c65 7368 6172 652f 6669 6c65  e.fileshare/file
        0x0110:  732f 0d0a 4e54 3a20 7572 6e3a 7361 6d73  s/..NT:.urn:sams
        0x0120:  756e 672e 636f 6d3a 6465 7669 6365 3a46  ung.com:device:F
        0x0130:  696c 6554 7261 6e73 6665 7253 6572 7665  ileTransferServe
        0x0140:  723a 310d 0a4e 5453 3a20 7373 6470 3a61  r:1..NTS:.ssdp:a
        0x0150:  6c69 7665 0d0a 5345 5256 4552 3a20 5348  live..SERVER:.SH
        0x0160:  502c 2055 506e 502f 312e 302c 2053 616d  P,.UPnP/1.0,.Sam
        0x0170:  7375 6e67 2055 506e 5020 5344 4b2f 312e  sung.UPnP.SDK/1.
        0x0180:  300d 0a55 534e 3a20 7575 6964 3a36 3236  0..USN:.uuid:626
        0x0190:  6636 6164 322d 6539 6339 2d34 6363 622d  f6ad2-e9c9-4ccb-
        0x01a0:  6135 6566 2d33 3537 6630 3461 3561 3133  a5ef-357f04a5a13
        0x01b0:  303a 3a75 726e 3a73 616d 7375 6e67 2e63  0::urn:samsung.c
        0x01c0:  6f6d 3a64 6576 6963 653a 4669 6c65 5472  om:device:FileTr
        0x01d0:  616e 7366 6572 5365 7276 6572 3a31 0d0a  ansferServer:1..
        0x01e0:  0d0a                                     ..
03:13:47.030387 IP (tos 0x0, ttl 1, id 7567, offset 0, flags [DF], proto UDP (17), length 468)
    192.168.49.1.4842 > 239.255.255.177.1900: [udp sum ok] UDP, length 440
        0x0000:  0100 5e7f ffb1 b272 bfdc 3230 0800 4500  ..^....r..20..E.
        0x0010:  01d4 1d8f 4000 0111 792f c0a8 3101 efff  ....@...y/..1...
        0x0020:  ffb1 12ea 076c 01c0 1d6b 4e4f 5449 4659  .....l...kNOTIFY
        0x0030:  202a 2048 5454 502f 312e 310d 0a48 4f53  .*.HTTP/1.1..HOS
        0x0040:  543a 2032 3339 2e32 3535 2e32 3535 2e31  T:.239.255.255.1
        0x0050:  3737 3a31 3930 300d 0a43 4143 4845 2d43  77:1900..CACHE-C
        0x0060:  4f4e 5452 4f4c 3a20 6d61 782d 6167 653d  ONTROL:.max-age=
        0x0070:  3138 3030 0d0a 4441 5445 3a20 5361 742c  1800..DATE:.Sat,
        0x0080:  2032 3820 4d61 7220 3230 3230 2030 333a  .28.Mar.2020.03:
        0x0090:  3133 3a34 3720 474d 540d 0a4c 4f43 4154  13:47.GMT..LOCAT
        0x00a0:  494f 4e3a 2068 7474 703a 2f2f 3139 322e  ION:.http://192.
        0x00b0:  3136 382e 3439 2e31 3a38 3338 372f 7374  168.49.1:8387/st
        0x00c0:  6f72 6167 652f 656d 756c 6174 6564 2f30  orage/emulated/0
        0x00d0:  2f64 6174 612f 7573 6572 2f30 2f63 6f6d  /data/user/0/com
        0x00e0:  2e73 616d 7375 6e67 2e61 6e64 726f 6964  .samsung.android
        0x00f0:  2e61 6c6c 7368 6172 652e 7365 7276 6963  .allshare.servic
        0x0100:  652e 6669 6c65 7368 6172 652f 6669 6c65  e.fileshare/file
        0x0110:  732f 0d0a 4e54 3a20 7572 6e3a 7361 6d73  s/..NT:.urn:sams
        0x0120:  756e 672e 636f 6d3a 6465 7669 6365 3a46  ung.com:device:F
        0x0130:  696c 6554 7261 6e73 6665 7253 6572 7665  ileTransferServe
        0x0140:  723a 310d 0a4e 5453 3a20 7373 6470 3a61  r:1..NTS:.ssdp:a
        0x0150:  6c69 7665 0d0a 5345 5256 4552 3a20 5348  live..SERVER:.SH
        0x0160:  502c 2055 506e 502f 312e 302c 2053 616d  P,.UPnP/1.0,.Sam
        0x0170:  7375 6e67 2055 506e 5020 5344 4b2f 312e  sung.UPnP.SDK/1.
        0x0180:  300d 0a55 534e 3a20 7575 6964 3a36 3236  0..USN:.uuid:626
        0x0190:  6636 6164 322d 6539 6339 2d34 6363 622d  f6ad2-e9c9-4ccb-
        0x01a0:  6135 6566 2d33 3537 6630 3461 3561 3133  a5ef-357f04a5a13
        0x01b0:  303a 3a75 726e 3a73 616d 7375 6e67 2e63  0::urn:samsung.c
        0x01c0:  6f6d 3a64 6576 6963 653a 4669 6c65 5472  om:device:FileTr
        0x01d0:  616e 7366 6572 5365 7276 6572 3a31 0d0a  ansferServer:1..
        0x01e0:  0d0a                                     ..
03:13:47.031388 IP (tos 0x0, ttl 1, id 24897, offset 0, flags [DF], proto UDP (17), length 460)
    192.168.49.1.4842 > 239.255.255.250.1900: [udp sum ok] UDP, length 432
        0x0000:  0100 5e7f fffa b272 bfdc 3230 0800 4500  ..^....r..20..E.
        0x0010:  01cc 6141 4000 0111 353c c0a8 3101 efff  ..aA@...5<..1...
        0x0020:  fffa 12ea 076c 01b8 8ea7 4e4f 5449 4659  .....l....NOTIFY
        0x0030:  202a 2048 5454 502f 312e 310d 0a48 4f53  .*.HTTP/1.1..HOS
        0x0040:  543a 2032 3339 2e32 3535 2e32 3535 2e32  T:.239.255.255.2
        0x0050:  3530 3a31 3930 300d 0a43 4143 4845 2d43  50:1900..CACHE-C
        0x0060:  4f4e 5452 4f4c 3a20 6d61 782d 6167 653d  ONTROL:.max-age=
        0x0070:  3138 3030 0d0a 4441 5445 3a20 5361 742c  1800..DATE:.Sat,
        0x0080:  2032 3820 4d61 7220 3230 3230 2030 333a  .28.Mar.2020.03:
        0x0090:  3133 3a34 3720 474d 540d 0a4c 4f43 4154  13:47.GMT..LOCAT
        0x00a0:  494f 4e3a 2068 7474 703a 2f2f 3139 322e  ION:.http://192.
        0x00b0:  3136 382e 3439 2e31 3a38 3338 372f 7374  168.49.1:8387/st
        0x00c0:  6f72 6167 652f 656d 756c 6174 6564 2f30  orage/emulated/0
        0x00d0:  2f64 6174 612f 7573 6572 2f30 2f63 6f6d  /data/user/0/com
        0x00e0:  2e73 616d 7375 6e67 2e61 6e64 726f 6964  .samsung.android
        0x00f0:  2e61 6c6c 7368 6172 652e 7365 7276 6963  .allshare.servic
        0x0100:  652e 6669 6c65 7368 6172 652f 6669 6c65  e.fileshare/file
        0x0110:  732f 0d0a 4e54 3a20 7572 6e3a 7361 6d73  s/..NT:.urn:sams
        0x0120:  756e 672e 636f 6d3a 7365 7276 6963 653a  ung.com:service:
        0x0130:  4669 6c65 5472 616e 7370 6f72 743a 310d  FileTransport:1.
        0x0140:  0a4e 5453 3a20 7373 6470 3a61 6c69 7665  .NTS:.ssdp:alive
        0x0150:  0d0a 5345 5256 4552 3a20 5348 502c 2055  ..SERVER:.SHP,.U
        0x0160:  506e 502f 312e 302c 2053 616d 7375 6e67  PnP/1.0,.Samsung
        0x0170:  2055 506e 5020 5344 4b2f 312e 300d 0a55  .UPnP.SDK/1.0..U
        0x0180:  534e 3a20 7575 6964 3a36 3236 6636 6164  SN:.uuid:626f6ad
        0x0190:  322d 6539 6339 2d34 6363 622d 6135 6566  2-e9c9-4ccb-a5ef
        0x01a0:  2d33 3537 6630 3461 3561 3133 303a 3a75  -357f04a5a130::u
        0x01b0:  726e 3a73 616d 7375 6e67 2e63 6f6d 3a73  rn:samsung.com:s
        0x01c0:  6572 7669 6365 3a46 696c 6554 7261 6e73  ervice:FileTrans
        0x01d0:  706f 7274 3a31 0d0a 0d0a                 port:1....
03:13:47.031853 IP (tos 0x0, ttl 1, id 7568, offset 0, flags [DF], proto UDP (17), length 460)
    192.168.49.1.4842 > 239.255.255.177.1900: [udp sum ok] UDP, length 432
        0x0000:  0100 5e7f ffb1 b272 bfdc 3230 0800 4500  ..^....r..20..E.
        0x0010:  01cc 1d90 4000 0111 7936 c0a8 3101 efff  ....@...y6..1...
        0x0020:  ffb1 12ea 076c 01b8 8cea 4e4f 5449 4659  .....l....NOTIFY
        0x0030:  202a 2048 5454 502f 312e 310d 0a48 4f53  .*.HTTP/1.1..HOS
        0x0040:  543a 2032 3339 2e32 3535 2e32 3535 2e31  T:.239.255.255.1
        0x0050:  3737 3a31 3930 300d 0a43 4143 4845 2d43  77:1900..CACHE-C
        0x0060:  4f4e 5452 4f4c 3a20 6d61 782d 6167 653d  ONTROL:.max-age=
        0x0070:  3138 3030 0d0a 4441 5445 3a20 5361 742c  1800..DATE:.Sat,
        0x0080:  2032 3820 4d61 7220 3230 3230 2030 333a  .28.Mar.2020.03:
        0x0090:  3133 3a34 3720 474d 540d 0a4c 4f43 4154  13:47.GMT..LOCAT
        0x00a0:  494f 4e3a 2068 7474 703a 2f2f 3139 322e  ION:.http://192.
        0x00b0:  3136 382e 3439 2e31 3a38 3338 372f 7374  168.49.1:8387/st
        0x00c0:  6f72 6167 652f 656d 756c 6174 6564 2f30  orage/emulated/0
        0x00d0:  2f64 6174 612f 7573 6572 2f30 2f63 6f6d  /data/user/0/com
        0x00e0:  2e73 616d 7375 6e67 2e61 6e64 726f 6964  .samsung.android
        0x00f0:  2e61 6c6c 7368 6172 652e 7365 7276 6963  .allshare.servic
        0x0100:  652e 6669 6c65 7368 6172 652f 6669 6c65  e.fileshare/file
        0x0110:  732f 0d0a 4e54 3a20 7572 6e3a 7361 6d73  s/..NT:.urn:sams
        0x0120:  756e 672e 636f 6d3a 7365 7276 6963 653a  ung.com:service:
        0x0130:  4669 6c65 5472 616e 7370 6f72 743a 310d  FileTransport:1.
        0x0140:  0a4e 5453 3a20 7373 6470 3a61 6c69 7665  .NTS:.ssdp:alive
        0x0150:  0d0a 5345 5256 4552 3a20 5348 502c 2055  ..SERVER:.SHP,.U
        0x0160:  506e 502f 312e 302c 2053 616d 7375 6e67  PnP/1.0,.Samsung
        0x0170:  2055 506e 5020 5344 4b2f 312e 300d 0a55  .UPnP.SDK/1.0..U
        0x0180:  534e 3a20 7575 6964 3a36 3236 6636 6164  SN:.uuid:626f6ad
        0x0190:  322d 6539 6339 2d34 6363 622d 6135 6566  2-e9c9-4ccb-a5ef
        0x01a0:  2d33 3537 6630 3461 3561 3133 303a 3a75  -357f04a5a130::u
        0x01b0:  726e 3a73 616d 7375 6e67 2e63 6f6d 3a73  rn:samsung.com:s
        0x01c0:  6572 7669 6365 3a46 696c 6554 7261 6e73  ervice:FileTrans
        0x01d0:  706f 7274 3a31 0d0a 0d0a                 port:1....
03:13:47.204147 IP (tos 0xc0, ttl 1, id 0, offset 0, flags [DF], proto IGMP (2), length 40, options (RA))
    192.168.49.143 > 224.0.0.22: igmp v3 report, 1 group record(s) [gaddr 224.0.0.251 to_ex { }]
        0x0000:  0100 5e00 0016 381d d941 dbff 0800 46c0  ..^...8..A....F.
        0x0010:  0028 0000 4000 0102 11c2 c0a8 318f e000  .(..@.......1...
        0x0020:  0016 9404 0000 2200 f902 0000 0001 0400  ......".........
        0x0030:  0000 e000 00fb c2bb d8bf be3d 6584 0000  ...........=e...
03:13:47.246126 IP (tos 0x0, ttl 255, id 0, offset 0, flags [DF], proto UDP (17), length 197)
    192.168.49.143.5353 > 224.0.0.251.5353: [udp sum ok] 0*- [0q] 4/0/0 _services._dns-sd._udp.local. PTR _raop._tcp.local., _airplay._tcp.local. PTR MiraScreen D941DBFF._airplay._tcp.local., _services._dns-sd._udp.local. PTR _airplay._tcp.local., _raop._tcp.local. PTR 3A1DD941DBFF@MiraScreen D941DBFF._raop._tcp.local. (169)
        0x0000:  0100 5e00 00fb 381d d941 dbff 0800 4500  ..^...8..A....E.
        0x0010:  00c5 0000 4000 ff11 a7f4 c0a8 318f e000  ....@.......1...
        0x0020:  00fb 14e9 14e9 00b1 cdca 0000 8400 0000  ................
        0x0030:  0004 0000 0000 095f 7365 7276 6963 6573  ......._services
        0x0040:  075f 646e 732d 7364 045f 7564 7005 6c6f  ._dns-sd._udp.lo
        0x0050:  6361 6c00 000c 0001 0000 1194 000d 055f  cal............_
        0x0060:  7261 6f70 045f 7463 70c0 2308 5f61 6972  raop._tcp.#._air
        0x0070:  706c 6179 c03a 000c 0001 0000 1194 0016  play.:..........
        0x0080:  134d 6972 6153 6372 6565 6e20 4439 3431  .MiraScreen.D941
        0x0090:  4442 4646 c041 c00c 000c 0001 0000 1194  DBFF.A..........
        0x00a0:  0002 c041 c034 000c 0001 0000 1194 0023  ...A.4.........#
        0x00b0:  2033 4131 4444 3934 3144 4246 4640 4d69  .3A1DD941DBFF@Mi
        0x00c0:  7261 5363 7265 656e 2044 3934 3144 4246  raScreen.D941DBF
        0x00d0:  46c0 34f5 064e dde1 78af 31ea cd         F.4..N..x.1..
03:13:47.268647 ARP, Ethernet (len 6), IPv4 (len 4), Request who-has 192.168.49.1 tell 192.168.49.143, length 38
        0x0000:  ffff ffff ffff 381d d941 dbff 0806 0001  ......8..A......
        0x0010:  0800 0604 0001 381d d941 dbff c0a8 318f  ......8..A....1.
        0x0020:  0000 0000 0000 c0a8 3101 4fba 5ce7 2016  ........1.O.\...
        0x0030:  110b 0000                                ....
03:13:47.269150 ARP, Ethernet (len 6), IPv4 (len 4), Reply 192.168.49.1 is-at b2:72:bf:dc:32:30 (oui Unknown), length 28
        0x0000:  381d d941 dbff b272 bfdc 3230 0806 0001  8..A...r..20....
        0x0010:  0800 0604 0002 b272 bfdc 3230 c0a8 3101  .......r..20..1.
        0x0020:  381d d941 dbff c0a8 318f                 8..A....1.
03:13:47.269233 IP (tos 0x0, ttl 255, id 0, offset 0, flags [DF], proto UDP (17), length 686)
    192.168.49.143.5353 > 224.0.0.251.5353: [udp sum ok] 0 [4q] [6n] ANY (QM)? 3A1DD941DBFF@MiraScreen D941DBFF._raop._tcp.local. ANY (QM)? MiraScreen D941DBFF.local. ANY (QM)? 143.49.168.192.in-addr.arpa. ANY (QM)? MiraScreen D941DBFF._airplay._tcp.local. ns: MiraScreen D941DBFF.local. A 192.168.49.143, 143.49.168.192.in-addr.arpa. PTR MiraScreen D941DBFF.local., MiraScreen D941DBFF._airplay._tcp.local. SRV MiraScreen D941DBFF.local.:7000 0 0, MiraScreen D941DBFF._airplay._tcp.local. TXT "deviceid=3A:1D:D9:41:DB:FF" "features=0x0A7FEFF0" "flags=0x4" "rmodel=EZAir1,1" "model=AppleTV3,2" "srcvers=220.68" "vv=2" "pk=dcc0e586ab5071a24c3da9c5d6cab31ae6503b51560d4dc00901f5d085ff3825" "pi=b08f5a79-db29-4384-b456-a4784d9e6055", 3A1DD941DBFF@MiraScreen D941DBFF._raop._tcp.local. SRV MiraScreen D941DBFF.local.:7000 0 0, 3A1DD941DBFF@MiraScreen D941DBFF._raop._tcp.local. TXT "cn=0,1,3" "da=true" "et=0,3,5" "ft=0x0A7FEFF0" "md=0,1,2" "tp=UDP" "vn=65537" "vs=220.68" "rmodel=EZAir1,1" "am=AppleTV3,2" "vv=2" "sf=0x4" "pk=dcc0e586ab5071a24c3da9c5d6cab31ae6503b51560d4dc00901f5d085ff3825" (658)
        0x0000:  0100 5e00 00fb 381d d941 dbff 0800 4500  ..^...8..A....E.
        0x0010:  02ae 0000 4000 ff11 a60b c0a8 318f e000  ....@.......1...
        0x0020:  00fb 14e9 14e9 029a a72e 0000 0000 0004  ................
        0x0030:  0000 0006 0000 2033 4131 4444 3934 3144  .......3A1DD941D
        0x0040:  4246 4640 4d69 7261 5363 7265 656e 2044  BFF@MiraScreen.D
        0x0050:  3934 3144 4246 4605 5f72 616f 7004 5f74  941DBFF._raop._t
        0x0060:  6370 056c 6f63 616c 0000 ff00 0113 4d69  cp.local......Mi
        0x0070:  7261 5363 7265 656e 2044 3934 3144 4246  raScreen.D941DBF
        0x0080:  46c0 3800 ff00 0103 3134 3302 3439 0331  F.8.....143.49.1
        0x0090:  3638 0331 3932 0769 6e2d 6164 6472 0461  68.192.in-addr.a
        0x00a0:  7270 6100 00ff 0001 134d 6972 6153 6372  rpa......MiraScr
        0x00b0:  6565 6e20 4439 3431 4442 4646 085f 6169  een.D941DBFF._ai
        0x00c0:  7270 6c61 79c0 3300 ff00 01c0 4300 0100  rplay.3.....C...
        0x00d0:  0100 0000 7800 04c0 a831 8fc0 5d00 0c00  ....x....1..]...
        0x00e0:  0100 0000 7800 02c0 43c0 7e00 2100 0100  ....x...C.~.!...
        0x00f0:  0000 7800 0800 0000 001b 58c0 43c0 7e00  ..x.......X.C.~.
        0x0100:  1000 0100 0011 9400 da1a 6465 7669 6365  ..........device
        0x0110:  6964 3d33 413a 3144 3a44 393a 3431 3a44  id=3A:1D:D9:41:D
        0x0120:  423a 4646 1366 6561 7475 7265 733d 3078  B:FF.features=0x
        0x0130:  3041 3746 4546 4630 0966 6c61 6773 3d30  0A7FEFF0.flags=0
        0x0140:  7834 0f72 6d6f 6465 6c3d 455a 4169 7231  x4.rmodel=EZAir1
        0x0150:  2c31 106d 6f64 656c 3d41 7070 6c65 5456  ,1.model=AppleTV
        0x0160:  332c 320e 7372 6376 6572 733d 3232 302e  3,2.srcvers=220.
        0x0170:  3638 0476 763d 3243 706b 3d64 6363 3065  68.vv=2Cpk=dcc0e
        0x0180:  3538 3661 6235 3037 3161 3234 6333 6461  586ab5071a24c3da
        0x0190:  3963 3564 3663 6162 3331 6165 3635 3033  9c5d6cab31ae6503
        0x01a0:  6235 3135 3630 6434 6463 3030 3930 3166  b51560d4dc00901f
        0x01b0:  3564 3038 3566 6633 3832 3527 7069 3d62  5d085ff3825'pi=b
        0x01c0:  3038 6635 6137 392d 6462 3239 2d34 3338  08f5a79-db29-438
        0x01d0:  342d 6234 3536 2d61 3437 3834 6439 6536  4-b456-a4784d9e6
        0x01e0:  3035 35c0 0c00 2100 0100 0000 7800 0800  055...!.....x...
        0x01f0:  0000 001b 58c0 43c0 0c00 1000 0100 0011  ....X.C.........
        0x0200:  9400 b908 636e 3d30 2c31 2c33 0764 613d  ....cn=0,1,3.da=
        0x0210:  7472 7565 0865 743d 302c 332c 350d 6674  true.et=0,3,5.ft
        0x0220:  3d30 7830 4137 4645 4646 3008 6d64 3d30  =0x0A7FEFF0.md=0
        0x0230:  2c31 2c32 0674 703d 5544 5008 766e 3d36  ,1,2.tp=UDP.vn=6
        0x0240:  3535 3337 0976 733d 3232 302e 3638 0f72  5537.vs=220.68.r
        0x0250:  6d6f 6465 6c3d 455a 4169 7231 2c31 0d61  model=EZAir1,1.a
        0x0260:  6d3d 4170 706c 6554 5633 2c32 0476 763d  m=AppleTV3,2.vv=
        0x0270:  3206 7366 3d30 7834 4370 6b3d 6463 6330  2.sf=0x4Cpk=dcc0
        0x0280:  6535 3836 6162 3530 3731 6132 3463 3364  e586ab5071a24c3d
        0x0290:  6139 6335 6436 6361 6233 3161 6536 3530  a9c5d6cab31ae650
        0x02a0:  3362 3531 3536 3064 3464 6330 3039 3031  3b51560d4dc00901
        0x02b0:  6635 6430 3835 6666 3338 3235 5e3e 4abe  f5d085ff3825^>J.
        0x02c0:  667d ffd8 aaac                           f}....
03:13:47.269363 IP (tos 0x0, ttl 64, id 6198, offset 0, flags [DF], proto UDP (17), length 61)
    192.168.49.143.48986 > 192.168.49.1.53: [udp sum ok] 43641+ A? time.google.com. (33)
        0x0000:  b272 bfdc 3230 381d d941 dbff 0800 4500  .r..208..A....E.
        0x0010:  003d 1836 4000 4011 3e99 c0a8 318f c0a8  .=.6@.@.>...1...
        0x0020:  3101 bf5a 0035 0029 25bc aa79 0100 0001  1..Z.5.)%..y....
        0x0030:  0000 0000 0000 0474 696d 6506 676f 6f67  .......time.goog
        0x0040:  6c65 0363 6f6d 0000 0100 0165 19db 529d  le.com.....e..R.
        0x0050:  0bd2 8a0c b9                             .....
03:13:47.271584 IP (tos 0x0, ttl 64, id 10113, offset 0, flags [DF], proto UDP (17), length 61)
    192.168.49.1.53 > 192.168.49.143.48986: [udp sum ok] 43641 Refused q: A? time.google.com. 0/0/0 (33)
        0x0000:  381d d941 dbff b272 bfdc 3230 0800 4500  8..A...r..20..E.
        0x0010:  003d 2781 4000 4011 2f4e c0a8 3101 c0a8  .='.@.@./N..1...
        0x0020:  318f 0035 bf5a 0029 a536 aa79 8185 0001  1..5.Z.).6.y....
        0x0030:  0000 0000 0000 0474 696d 6506 676f 6f67  .......time.goog
        0x0040:  6c65 0363 6f6d 0000 0100 01              le.com.....
03:13:47.291823 IP (tos 0x0, ttl 64, id 6205, offset 0, flags [DF], proto UDP (17), length 61)
    192.168.49.143.55330 > 192.168.49.1.53: [udp sum ok] 43641+ A? time.google.com. (33)
        0x0000:  b272 bfdc 3230 381d d941 dbff 0800 4500  .r..208..A....E.
        0x0010:  003d 183d 4000 4011 3e92 c0a8 318f c0a8  .=.=@.@.>...1...
        0x0020:  3101 d822 0035 0029 0cf4 aa79 0100 0001  1..".5.)...y....
        0x0030:  0000 0000 0000 0474 696d 6506 676f 6f67  .......time.goog
        0x0040:  6c65 0363 6f6d 0000 0100 0169 cab9 633e  le.com.....i..c>
        0x0050:  0a09 84ed cf                             .....
03:13:47.293152 IP (tos 0x0, ttl 64, id 10115, offset 0, flags [DF], proto UDP (17), length 61)
    192.168.49.1.53 > 192.168.49.143.55330: [udp sum ok] 43641 Refused q: A? time.google.com. 0/0/0 (33)
        0x0000:  381d d941 dbff b272 bfdc 3230 0800 4500  8..A...r..20..E.
        0x0010:  003d 2783 4000 4011 2f4c c0a8 3101 c0a8  .='.@.@./L..1...
        0x0020:  318f 0035 d822 0029 8c6e aa79 8185 0001  1..5.".).n.y....
        0x0030:  0000 0000 0000 0474 696d 6506 676f 6f67  .......time.goog
        0x0040:  6c65 0363 6f6d 0000 0100 01              le.com.....
03:13:47.300752 IP (tos 0x0, ttl 64, id 6207, offset 0, flags [DF], proto UDP (17), length 61)
